:100000000C9460030C947D030C947D030C947D038D
:100010000C947D030C947D030C947D030C947D0360
:100020000C947D030C947D030C94331F0C946F1E71
:100030000C94F2180C947D030C947D030C947D03B6
:100040000C947D030C947D030C947D030C947D0330
:100050000C947D030C9480180C947D030C947D0308
:100060000C947D030C947D030C947D030C947D0310
:100070000C947D030C947D030C947D030C947D0300
:100080000C947D030C947D030C947D030C947D03F0
:100090000C947D030C947D030C947D030C947D03E0
:1000A0000C947D030C947D030C947D03BF06DE0647
:1000B000E306E806ED06F206F706FC06010706076A
:1000C0000B075904250728072B072E07310734078C
:1000D00036074E07EF07EF0729082908740890082C
:1000E000590AB90AD208B009C109C109C40BC70B22
:1000F000CA0BCD0BD00BD30BD60B1C111F112E111D
:10010000221127112C112A117E1CA51C471EA51C8B
:10011000471EED1C101D471E0B1E1E1EAC24AC24DA
:10012000BF24BF24B524BF24BF24BF24AC24AC24E7
:10013000BA24BF24BF24BA2435002B003962E10061
:10014000025100001E00140004001D00E0004D00DC
:100150001F001A0016001B00E300E2002000080048
:100160000700060050002C002100150009001900AE
:100170004F004A00220017000A000500000001534A
:10018000C25C4C0000002900000002532E002A002F
:10019000000029000000010023001C000B001100DA
:1001A00000000100240018000D00100052004B0058
:1001B00025000C000E003600510028002600120019
:1001C0000F0037003000E60027001300330038002E
:1001D00031004E002D002F003472E5000151000067
:1001E0002900010001000100010000003A001E0288
:1001F000200222022E0001003B001F0221022302E6
:10020000010001003C002F0226022F000100010026
:100210003D00300227023000010001003E003102A3
:100220003500350200000100C25C01000000010041
:10023000000001003F00010000000100000001007B
:10024000400052005100240200000100410024003F
:1002500021001E00010001004200250022001F00B5
:100260003700010043002600230020002700010082
:10027000440025022E0231002E000100450001003D
:100280000100010001000000010001000100010067
:100290000100000001000100010001000100010057
:1002A00001000100F2000100010001000100F00066
:1002B000F10001000100010001000100F300010054
:1002C0000100010001000100010001000000010027
:1002D000C25C010000000100000001000100AB0051
:1002E0000000AC000000010001000100010001005D
:1002F0000000010001000100F4000100A80001005D
:100300000100F900F600FA00AA0001000100010056
:10031000F5000100A9000100010001000100010039
:1003200001000100005C0100AE00010001000000BE
:1003300000010101010101010101020202020202A8
:10034000020202030303030303030304040404047B
:100350000404050505050506060606060707070742
:100360000708080808090909090A0A0A0B0B0B0CF7
:100370000C0C0D0D0D0E0E0E0F0F0F101011111194
:100380001212131314141515161617171818191915
:100390001A1A1B1B1C1D1D1E1E1F2020212222237A
:1003A0002424252626272829292A2B2C2D2D2E2FBB
:1003B00030313232333435363738393A3B3C3D3ED2
:1003C0003F404142434445464748494A4C4D4E4FC1
:1003D00050515354555658595A5B5D5E5F61626483
:1003E000656668696B6C6D6F7072737577787A7B10
:1003F0007D7E8082838587888A8C8E8F9193959667
:10040000989A9C9EA0A2A3A5A7A9ABADAFB1B3B586
:10041000B7BABCBEC0C2C4C6C9CBCDCFD1D4D6D862
:10042000DBDDDFE2E4E7E9EBEEF0F3F5F8FAFDFF00
:1004300000047F3F1F643214643214783C1E1E1483
:100440000A0505010902A10185020901A1000509AA
:1004500019012905150025019505750181029501F0
:10046000750381010501093009311581257F950248
:100470007508810609381581257F95017508810663
:10048000050C0A38021581257F950175088106C083
:10049000C005010980A10185031A81002A83001685
:1004A0000100260300950175108100C0050C0901AB
:1004B000A10185041A01002A9C02160100269C0253
:1004C000950175108100C005010906A1018505058A
:1004D0000719E029E7150025019508750181020536
:1004E00007190029EF1500250195F0750181020516
:1004F000081901290595057501910295017503916A
:1005000001C005010906A101050719E029E7150049
:10051000250195087501810295017508810105077E
:10052000190029FF150026FF0095067508810005B2
:100530000819012905950575019102950175039129
:1005400001C009023B00020100A0FA0904000001F9
:10055000030101000921110100012240000705816A
:100560000308000A09040100010300000009211129
:1005700001000122C0000705820320000A120110B9
:100580000100000008EDFE07130100010203010451
:10059000033000000016034500720067006F00641E
:1005A000006F007800200045005A00000008035A40
:1005B0000053004100000004030904FFAA7F5540D6
:1005C0002223252628292A2C2D2F30323335363860
:1005D0003A3B3D3E4042434547494A4C4E505153B9
:1005E0005557595A5C5E6062646668696B6D6F71DD
:1005F000737577797B7D7F81838587898A8C8E90DF
:10060000929496989A9C9E9FA1A3A5A7A8AAACAEE7
:10061000AFB1B3B4B6B8B9BBBCBEBFC1C2C3C5C627
:10062000C7C9CACBCCCDCED0D1D2D2D3D4D5D6D7D0
:10063000D7D8D9D9DADADBDBDBDCDCDCDCDCDDDD0E
:10064000DDDDDCDCDCDCDCDBDBDBDADAD9D9D8D7FE
:10065000D7D6D5D4D3D2D2D1D0CECDCCCBCAC9C7A0
:10066000C6C5C3C2C1BFBEBCBBB9B8B6B4B3B1AFD7
:10067000AEACAAA8A7A5A3A19F9E9C9A9896949277
:10068000908E8C8A89878583817F7D7B797775734E
:10069000716F6D6B6968666462605E5C5A5957552C
:1006A0005351504E4C4A4947454342403E3D3B3AE8
:1006B0003836353332302F2D2C2A2928262523226F
:1006C00011241FBECFEFDAE0DEBFCDBF12E0A0E005
:1006D000B1E0ECEEF4E502C005900D92AE31B10749
:1006E000D9F723E0AEE1B2E001C01D92A53AB2070E
:1006F000E1F70E945D130C94742A0C9400004F9251
:100700005F926F927F929F92AF92BF92CF92DF9251
:10071000EF92FF920F931F93CF93DF9300D000D0FF
:100720001F92CDB7DEB7FC010081F18083819481F7
:10073000892B39F01FEFF11206C091E00F3F19F439
:1007400003C091E001C090E090FD46C76F0185E0D5
:10075000DE01119601900D928A95E1F7F601228152
:1007600089819A81222349F00E94491A182F682F03
:1007700089819A810E94C31A03C00E94961A182F79
:1007800024E5129FF001112436E0F39EE00DF11DE7
:100790001124E00FF11DEE0FFF1FE85CFE4F0591E5
:1007A000149109308DE5180709F042C0F6018281E5
:1007B000882309F495C090912E0281E0890F8770FB
:1007C000987F853020F4892B80932E0202C090936D
:1007D0002E0280912E028770FFEF8F9FC00111249F
:1007E00095958795959587959927909389008093FE
:1007F000880090938B0080938A0090938D00809363
:100800008C0040912E0250912F0260913002709125
:1008100031028FE090E00E94DC28609143027091E9
:10082000440280914502909146020E94BD1058C03A
:100830000B302DE5120759F128F40A308DE5180721
:1008400061F14EC00C309DE5190739F00D30EDE532
:100850001E0709F045C02DE201C022E241E061EE31
:10086000C6010F900F900F900F900F90DF91CF91D6
:100870001F910F91FF90EF90DF90CF90BF90AF90BE
:100880009F907F906F905F904F900C94A823F601FB
:100890008281882309F4A0C60CC0F60182818823D6
:1008A00009F49AC690911E0281E0892780931E0266
:1008B00093C681E00F900F900F900F900F90DF91F3
:1008C000CF911F910F91FF90EF90DF90CF90BF904D
:1008D000AF909F907F906F905F904F900C94B40C6E
:1008E000F6018281882319F1033EFCE51F07C1F060
:1008F00050F4013E3CE5130781F0023E8CE51807F9
:10090000B1F481E010C0043E9CE5190759F0053EA2
:10091000ECE51E0761F484E006C010922A0205C0CF
:1009200082E001C083E080932A020E94890D17FFB4
:1009300071C0F6018281882309F46CC08091100394
:1009400080931F021092100380912A02813071F06F
:1009500048F08230C1F08430E1F486EE0E946027D6
:1009600088E115C082EE0E94732713C083E00E94C5
:10097000DA2688E10E94732788E10E94F92683E045
:100980000E94CF2606C082EE0E94732787E50E9450
:1009900060278FE39CE90197F1F700C00000580140
:1009A000E894B7F82CE0E22EF12CC5010E2C02C021
:1009B000969587950A94E2F7282F2F7041F0822FA1
:1009C00090E02A3010F44D9604C0069702C087E2EA
:1009D00090E00E94602794E0E91AF108ECEFEE162F
:1009E000EFEFFE0611F780912A02813039F040F0D6
:1009F000823031F0843051F488E206C08CE204C0C9
:100A000082EE0E94F92602C00E94602780911F0298
:100A100080931003033FFCE51F0701F178F4083DC4
:100A20003CE51307C1F0093D8CE5180719F1073DB6
:100A30009CE5190719F526E241EE11CF053FECE5DB
:100A40001E07A1F078F0063F2CE51207B9F427E263
:100A500045EE66EE05CF27E245EE0EC026E241EEFA
:100A600060EEFECE27E245EE64EEFACE26E241EEDF
:100A700062EEF6CE28E241E065EEF2CEF60192811A
:100A8000992309F44CC1109220020230FCE51F07A3
:100A900008F42FC106312CE5120738F098012A5FBF
:100AA0003C452730310508F024C10E947819909305
:100AB0004102809340020F303CE5130709F4CFC098
:100AC00008F042C008309CE5190709F4A8C0F0F40A
:100AD0000430FCE51F0709F490C068F402303CE5DF
:100AE000130709F486C003301C4509F0DFC080916C
:100AF00040028260D9C006309CE5190709F487C01E
:100B000008F089C0809140028860CEC00B30FCE5BF
:100B10001F0709F495C068F409303CE5130709F490
:100B200082C00A301C4509F0C1C080914002886033
:100B300080C00D309CE5190709F486C008F087C015
:100B4000809140028D7FB0C00A3FFCE51F0709F489
:100B500057C050F502313CE5130709F488C068F42A
:100B600000319CE5190709F47EC001311C4509F0EC
:100B70009DC0809140028F7B97C00431FCE51F0728
:100B800009F487C008F479C005311C4509F08EC00E
:100B90008091400282FB222720F991E0922790FB6E
:100BA00082F990FB83F980C00D3F8CE5180709F4AA
:100BB00052C058F40B3FECE51E0729F10C3F1C45D1
:100BC00009F074C08091410260C00F3F2CE512070C
:100BD00009F458C080F101151D4509F067C08091E6
:100BE0004102982F909591708E7F892B90FB81F90F
:100BF0004DC080914002816057C08091400219C071
:100C0000809141021BC08091410282603FC080916F
:100C10004002806149C080914002806245C080915D
:100C20004002806441C00E94BA26809140028068E0
:100C30003BC0846039C0809141028260816026C0DF
:100C4000809140028E7F30C08091400219C0809117
:100C50004002877F29C0809141028D7F17C080911B
:100C600040028F7E21C0809140028F7D1DC00E9476
:100C7000BA26809140028F7717C080914002877F0B
:100C80008B7F12C0809141028D7F8E7F80934102C5
:100C90000DC00E94BA268091400287FB222720F9CE
:100CA00091E0922790FB87F9809340026091400287
:100CB0001091410284E090E00E94CA28612F81E2F5
:100CC00090E00E94CA280F900F900F900F900F9005
:100CD000DF91CF911F910F91FF90EF90DF90CF9018
:100CE000BF90AF909F907F906F905F904F900C94CB
:100CF000BA26809110030631FCE51F07A1F58A7A18
:100D000091E009F490E090932102882311F065E3CB
:100D100001C069E28EE792E00E9443190EC00631DD
:100D20001C4509F018C180912102882309F452C49E
:100D300065E38EE792E00E941B190F900F900F90D1
:100D40000F900F90DF91CF911F910F91FF90EF9037
:100D5000DF90CF90BF90AF909F907F906F905F900B
:100D60004F900C94031A8272F801E25CFC45E43166
:100D7000F10508F095C0EA5AFF4F0C943429809190
:100D80005E0280FF16C00F900F900F900F900F9093
:100D9000DF91CF911F910F91FF90EF90DF90CF9057
:100DA000BF90AF909F907F906F905F904F900C940A
:100DB000A510816080935E0286957CCD47EB5CE058
:100DC00060EC7CE02CC040EC5CE067EB7CE027C092
:100DD00044E75BE06DE77BE022C04DE75BE064E762
:100DE0007BE01DC04CE55BE068E67BE018C048E6B0
:100DF0005BE06CE57BE013C044E45BE060E57BE036
:100E00000EC040E55BE064E47BE009C04EE45CE0DA
:100E10006FE57CE004C04FE55CE06EE47CE00F90A1
:100E20000F900F900F900F90DF91CF911F910F9126
:100E3000FF90EF90DF90CF90BF90AF909F907F900A
:100E40006F905F904F900C94B32265E082E010C0E9
:100E500068E086E00DC06EE089E00AC064E18FE0E2
:100E600007C067E185E104C088E124CD62E289E141
:100E70000F900F900F900F900F90DF91CF911F91D7
:100E80000F91FF90EF90DF90CF90BF90AF909F9029
:100E90007F906F905F904F900C94A22283E20ACDD6
:100EA0000115ECE51E07D1F00E3D1C4509F053C0BD
:100EB0000F900F900F900F900F90DF91CF911F9197
:100EC0000F91FF90EF90DF90CF90BF90AF909F90E9
:100ED0007F906F905F904F900C9489190E94BA2672
:100EE0000FEF14E32CE0015010402040E1F700C068
:100EF0000000F89481E08093E00080E28093D800C5
:100F00001092C9008FE19EE40197F1F700C0000044
:100F10001DBA109268001CBC10BE1FBA10927A0055
:100F200010926E0010926F00109271001092720079
:100F30001092C9001092BC0014B817B81AB81DB8A6
:100F400010BA1092BC0015B818B81BB81EB811BA68
:100F50000C94003F41C3F60100811181992349F0AF
:100F6000C8010E94491AF82E682FC8010E94C31AAE
:100F700004C0C8010E94961AF82EB8018F2D0E9455
:100F80008F0D8C01B82EF601E580E2949FE0E922F6
:100F9000F280F11010920F0380910D03877079F0A9
:100FA000FF2069F080E2800F883048F082E00E94E4
:100FB000201B80910D038770AA24A3948111A12C7A
:100FC000912E92948FE09822892D90E08C3091059B
:100FD00008F0CFC2FC01E659FF4F0C943429812F51
:100FE000807F1F70882311F01295107FFF20B9F0C9
:100FF000112309F448C280E2800F883010F0B1104C
:1010000006C080911003182B1093100305C0809127
:101010000F03182B10930F030E94031A34C2802F62
:101020000E94F926112309F4A4C2005E109508302D
:1010300010F0B11006C08091100318231093100314
:1010400005C080910F03182310930F030E94031A09
:1010500090C2812F807F1F70803211F01295107F17
:10106000BB2021F0F1E0BF16E1F028C0FF2081F0A5
:1010700080911103EE2051F001E0E01207C0182B1F
:10108000181709F476C21093110373C2812B10C094
:10109000EE2021F021E0E21609F46BC20E94FD1956
:1010A0001FC0FF2041F031E03E1508F462C2812FDD
:1010B0000E94EF265EC2E1105CC212C0FF2019F050
:1010C000EE20A9F3E0C1EE2059F0093309F0EDC19B
:1010D0008FEF97EEE3E081509040E040E1F7E3C10D
:1010E000812F0E94E42645C2812F869586958370C4
:1010F00019F0813059F03DC2FF2019F0C8019370FA
:1011000002C080E090E00E94802239C2FF2019F0E6
:10111000C801937002C080E090E00E946A222FC252
:10112000FF20F9F0053F51F0063F71F0043FA9F4AC
:10113000809122029091230281600BC08091220253
:1011400090912302826005C0809122029091230237
:1011500084609093230280932202802F0E941818AB
:101160001EC0053F51F0063F71F0043FA9F4809185
:101170002202909123028E7F0BC0809122029091D7
:1011800023028D7F05C080912202909123028B7FE4
:101190009093230280932202802F0E944E170E9478
:1011A000DC18EDC1812F837009F069C0F110E5C131
:1011B000902F929596959770990F990F802F8F7019
:1011C000482E512C612C712C092E04C0440C551C46
:1011D000661C771C0A94D2F704FF12C04FE050E05F
:1011E00060E070E004C0440F551F661F771F9A959A
:1011F000D2F7DB01CA0180959095A095B09503C008
:1012000080E090E0DC0116951695412F4370423046
:1012100019F1C8F4009112031091130320911403E3
:1012200030911503413059F084299529A629B72911
:10123000BC01CD0160237123822393230AC0402A7D
:10124000512A622A732ABC01CD0164297529862995
:1012500097290E945A1B91C184299529A629B7294B
:101260000091120310911303209114033091150380
:10127000BC01CD016027712782279327EACFFF2089
:1012800019F0812F817001C08695882309F475C1FA
:10129000902F929596959770990F990F802F8F7038
:1012A000482E512C612C712C092E04C0440C551C65
:1012B000661C771C0A94D2F704FF12C04FE050E07E
:1012C00060E070E004C0440F551F661F771F9A95B9
:1012D000D2F7DB01CA0180959095A095B09503C027
:1012E00080E090E0DC0116951695412F4370423066
:1012F000D9F068F500914302109144022091450213
:1013000030914602413059F084299529A629B72900
:10131000BC01CD0160237123822393231EC0402A88
:10132000512A622A732A13C084299529A629B7292C
:1013300000914302109144022091450230914602EF
:10134000BC01CD01602771278227932706C0BC010D
:10135000CD0164297529862997290E94EF1A0DC1AC
:101360001F70FF2039F0812F0E94391B802F0E94AF
:10137000EF2603C1802F0E94E426812F0E94FB1AD2
:10138000FCC0802FF2EFBF1609F43EC0FB1538F009
:1013900020EFB21661F031EFB31689F16FC093EF11
:1013A000B916C9F1E4EFBE1609F44CC067C0FF20BE
:1013B00009F1E110DEC01F7181E090E0A0E0B0E033
:1013C000AC01BD0104C0440F551F661F771F1A955D
:1013D000D2F78091430290914402A0914502B091CE
:1013E00046028A019B01082719272A273B27C901A2
:1013F000B80125C021E02E1508F4BBC0DCCFFF20CA
:1014000029F0812F8F712CC0FF20D9F3812F8F718C
:101410000E94FB1AAEC0FF2079F01F7181E090E0BE
:10142000A0E0B0E0BC01CD0104C0660F771F881FAB
:10143000991F1A95D2F703C060E070E0CB010E94BB
:10144000EF1A97C0FF2079F01F71812F0E94391B7E
:1014500038E0139FC0011124836080930D03812F16
:101460000E94391B86C081E00E94201B81E08E15FE
:1014700008F07FC082E00E94201B7BC0FF2039F073
:10148000EE2009F4BECF802F0E94732772C0EE2099
:1014900009F4BCCF893349F49FEFE7EEF3E09150B4
:1014A000E040F040E1F700C00000802F0E94F926E4
:1014B00060C012EFB116E1F01B1538F020EFB21644
:1014C00069F031EFB31611F12BC084EFB816C9F0F3
:1014D000B81660F095EFB91671F022C0FF2009F43C
:1014E0004EC09091A00381E0892708C081E0F826D2
:1014F000F092A00344C0F11042C081E08093A003A9
:101500003EC0F1103CC01092A00339C0FF2029F06A
:1015100080919F03882329F329C0EE2011F32FC067
:1015200080919F03EE20C1F0882341F09091A003A9
:1015300081E089278093A00310929F03802FFF20D2
:1015400019F00E9473271BC00E94F92686E0F6015D
:1015500011928A95E9F713C0882389F0F1100FC022
:101560009091A00381E089278093A00310929F03AC
:1015700006C088EF890D843010F40E949622AA20BC
:1015800059F180910D0380FD27C0F60112828595E7
:10159000859585950E94391BC6010E947F03809125
:1015A0000D038595859585950F900F900F900F9061
:1015B0000F90DF91CF911F910F91FF90EF90DF90EF
:1015C000CF90BF90AF909F907F906F905F904F9023
:1015D0000C94FB1A69E2ADCB0F900F900F900F9017
:1015E0000F90DF91CF911F910F91FF90EF90DF90BF
:1015F000CF90BF90AF909F907F906F905F904F90F3
:1016000008959091400292FF0DC0282F2871283034
:1016100019F4877F846006C0282F2471243011F4C8
:101620008B7F886093FF0DC0282F2871283119F413
:10163000877E846106C0282F2471243111F48B7EAB
:1016400088612091410220FF0DC0382F3871383059
:1016500019F4877F816006C0382F3171313011F461
:101660008E7F886021FF0DC0282F2871283119F442
:10167000877E816106C0282F2171213111F48E7E71
:10168000886194FD877E0895EEE5F2E043812CE0C9
:10169000421B08F440E021E0628181810C940C231C
:1016A000EEE5F2E043812CE0420F08F44FEF21E039
:1016B000628181810C940C23EEE5F2E062812FEFD0
:1016C000621B08F460E021E0438181810C940C23CB
:1016D000EEE5F2E062812FEF620F08F46FEF21E098
:1016E000438181810C940C23EEE5F2E0818121E0BD
:1016F000438162818C500C940C23EEE5F2E08181F1
:1017000021E043816281845F0C940C23CF93E82F06
:10171000873080F58091060190910701892B09F0AF
:1017200047C0CE2F64E670E080E40E9406289093C4
:10173000070180930601892BD1F464E670E082E111
:101740000E945D289093070180930601892B79F40C
:1017500081E090E001C0880FCA95EAF764E670E086
:1017600080950E945D289093070180930601CF9198
:101770000C94B22890E0FC013797E730F105C0F4F3
:10178000EA58FF4F0C943429209A289811C0219AC6
:1017900029980EC0229A2A980BC0239A2B9808C029
:1017A000529A5A9805C0539A5B9802C03E9A46983E
:1017B000CF910895CF93873008F03FC08091060104
:1017C00090910701892B09F041C064E670E080E444
:1017D0000E9406289093070180930601892B11F03F
:1017E000C0E027C064E670E083E10E945D2890932A
:1017F000070180930601892B99F764E670E081E484
:101800000E9406289093070180930601892B41F7D7
:1018100084E690E00E948D2897FF05C09093070111
:1018200080930601DDCFC82FC0951092070110925A
:1018300006010E94B2288C2F0AC09FB18FB1807F11
:10184000869586959370892B809501C080E0CF9115
:10185000089580915E02282F269530E021153105EC
:1018600019F48170826005C02532310524F0817041
:10187000886480935E020895CF92DF92EF92FF9288
:101880006B017C010E94290CB701A60188E090E061
:10189000FF90EF90DF90CF900C94DC288091620253
:1018A000882319F081508093620260915E027091EA
:1018B0005F0280916002909161020C943C0C8091D7
:1018C0006202833018F48F5F8093620260915E023F
:1018D00070915F0280916002909161020C943C0CC7
:1018E00090915E0290FF36C09170811102C09260AB
:1018F00006C0853210F0986402C0880F982B909330
:101900005E02662351F060915E0270915F028091E9
:101910006002909161020E943C0C60915E026695AB
:1019200070E04BE050E083E191E00E94672A892B50
:1019300019F01092640202C00E941C2481E080937E
:101940005B0220E0409161026091600280915F0241
:101950000C940C230895EEE5F2E080818160808391
:1019600060E086950C94700C61E00C94700C809192
:101970005E028695815009F484E261E00C94700C5B
:1019800080915E0286958F5F853208F081E061E08C
:101990000C94700CEEE5F2E083E0808311828FEF0F
:1019A00082838383148260817181828193810C940C
:1019B0003C0CBF92CF92DF92EF92FF920F931F9356
:1019C000CF93DF93E82EF62EE901E42FF0E06111CA
:1019D00006C0E05DFC4F8491B82EE82F71C0262F21
:1019E00030E0E05DFC4FE491FE2FCE2ED12C46E09E
:1019F000849FC00111240FEF10E0B8010E940C2950
:101A00004BEA4603C001479F900D11248E0D911D96
:101A10008E0D911D982F990F890FD801A21BB30B22
:101A2000AC9DA001AD9D500DBC9D500D1124B52E57
:101A3000F89ED0011124AB2FBB277801EA1AFB0ACC
:101A4000EC9CD001ED9CB00DFC9CB00D11247801F4
:101A5000E81AF108E29EC001E39E900DF29E900DFF
:101A60001124892F9927081B190B0C9D90010D9D9E
:101A7000300D1C9D300D1124832F6230710591F0C3
:101A800048F461157105E1F061307105B9F48E2FEC
:101A9000EB2F16C06430710569F040F066307105B7
:101AA00079F00CC08E2FE52FB32E0AC0E52FBF2E84
:101AB0008B2F06C0852FBE2EE32F02C0852FBB2E95
:101AC000E9838883BA821B82DF91CF911F910F91A6
:101AD000FF90EF90DF90CF90BF900895CF93DF936A
:101AE00000D000D0CDB7DEB790915E0290FF0AC063
:101AF0009E012F5F3F4F0E94D90C4B8169818A81E3
:101B00000E94B9220F900F900F900F90DF91CF910C
:101B1000089560912A028CE090E00C94CA28CF933B
:101B2000DF9324E5829FC0011124FC0146E0749FED
:101B3000E00DF11D1124E60FF11DEE0FFF1FE85C13
:101B4000FE4FC591D491CE01C238D10569F1B0F4F0
:101B5000C133D10509F475C048F4C932D10509F47F
:101B600069C0CA32D10509F473C085C0C533D10537
:101B700009F459C0C933D105B9F07DC0C33ED105C0
:101B800071F138F4C03ED105B1F0C23ED10511F17A
:101B900072C0C63ED105B9F1C73ED105C9F1C43EF8
:101BA000D10509F068C024C02091400220FD5DC02D
:101BB00021FD5BC060C02091400220FD50C02091FB
:101BC000410220FF57C18091400284FD51C183EE44
:101BD00090E050C12091400222FF4CC1F4CF80918F
:101BE000400282FD3FC08091410280FD3EC0EBCFAC
:101BF0002091410221FF3EC18091400284FD38C105
:101C000087EE90E037C12091400223FF33C1F4CF2B
:101C10008091400283FD2CC08091410281FFECCF76
:101C200084EE90E027C12091400225FF23C189E284
:101C300090E020C12091400225FF1CC185E390E087
:101C400019C12091400226FF15C18AE290E012C11D
:101C50002091400226FF0EC181E390E00BC189E391
:101C600090E008C182EE90E005C180EE90E002C1F4
:101C700086EE90E0FFC0C11552E5D50708F075C0AB
:101C8000C11521E5D20728F09C2F8827816F906A23
:101C9000F1C0C83ED10570F5C03ED10508F0EAC0DC
:101CA000C83AD105B8F4C53AD10550F08C2F855A01
:101CB000C82FD0E0C351DE4F888190E09064DAC035
:101CC000C130D10509F4D6C008F4D2C0249708F475
:101CD000CFC0D0C0CF3BD10508F0CAC08C2F885AE6
:101CE000C82FD0E0CC0FDD1FC051DE4F8881998115
:101CF0009464C0C0C11540E2D40760F4C11551E03E
:101D0000D50708F0B7C0C03FD10508F4B1C0CE0177
:101D10009065B0C0C11580E4D80708F4A9C0C1150A
:101D200020E5D20720F4CE019F70906AA3C0CE01B7
:101D3000F4E096958795FA95E1F7282F23703C2FCC
:101D4000337081E090E002C0880F991F3A95E2F766
:101D50009C68922B2C2F2F702695269550E2259F5C
:101D600090011124822B932B85C0C11546E5D40721
:101D700008F03FC0C11555E5D50748F08C2F0E94EB
:101D8000010B8F7190E0982F8827906273C0C11566
:101D900084E5D80728F09C2F8827846F906A6AC052
:101DA0009E01237033279C2F96959695C115D34598
:101DB00080F441E050E002C0440F551F2A95E2F73D
:101DC00080E2989F90011124CA01822B932B9C687A
:101DD00051C041E050E002C0440F551F2A95E2F780
:101DE00080E2989F90011124CA01822B932B9A685C
:101DF00041C0C1155AE5D50778F5C11589E5D80761
:101E000010F18C2F8F700E94010B9E0194E036958B
:101E100027959A95E1F72F7030E0322F222730690D
:101E2000A901482B0EC090568115904208F58D2FC0
:101E30008F710E94010B9E01332730628F71A901BF
:101E4000582BCA0117C0C11528E5D20788F09C2F6E
:101E50008827806F906A0EC0C1154BE5D40740F00B
:101E6000CE01C1155CE5D507F0F69927906602C052
:101E700080E090E0DF91CF91089580E290E0909330
:101E80000701809306018091270281110EC00E94F4
:101E9000002881E0809327022FEF83ED90E321500B
:101EA00080409040E1F700C0000064E670E080E40C
:101EB0000E9406289093070180930601892B09F060
:101EC0004EC064E670E080E00E945D2890930701B8
:101ED00080930601892B09F042C064E670E080E03F
:101EE0000E945D289093070180930601892BB9F524
:101EF00064E670E08FE30E945D2890930701809371
:101F00000601892B61F50E94B22864E670E080E446
:101F10000E9406289093070180930601892BF9F40B
:101F200064E670E08CE00E945D2890930701809346
:101F30000601892BA1F464E670E080E00E945D2830
:101F40009093070180930601892B49F464E670E0C1
:101F50008FE30E945D2890930701809306010E9401
:101F6000B228809106010895CF93DF9356985E982A
:101F700025982D9826982E9827982F98C8E8D0E075
:101F80008FEF90E099838883AAE8B0E011969C9344
:101F90008E93ECE8F0E091838083259A2D9A2FEFC1
:101FA00080E792E0215080409040E1F700C00000BF
:101FB000269A2E9A2FEF80E792E0215080409040A1
:101FC000E1F700C00000279A2F9A2FEF80E792E0F8
:101FD000215080409040E1F700C0000025982D98E6
:101FE0002FEF80E792E0215080409040E1F700C061
:101FF000000026982E982FEF80E792E02150804035
:102000009040E1F700C0000027982F9880912E02A1
:1020100087702FEF829FC001112495958795959524
:10202000879599279983888311969C938E939183A2
:10203000808356985E9825982D9826982E982798F4
:102040002F98DF91CF910895EF92FF920F931F93F6
:10205000CF93DF9380915E0280FF08C00FE413E00E
:102060008BE8E82E83E0F82EF8010CC0EFE4F3E0F3
:102070001182108212821382349683E0EB38F807C3
:10208000B9F7ECCF928120813181892F291708F48B
:10209000822F381708F4832F8383381B3183281B42
:1020A0002083981B92833496EE16FF0659F70E9400
:1020B000002864E670E084E80E940628CFE4D3E0BC
:1020C00064E670E088810E945D2864E670E08981A2
:1020D0000E945D2864E670E08A810E945D2864E6C3
:1020E00070E08B810E945D282496EC16FD0641F776
:1020F0000E94B228579A8BB18F779BB190682FB707
:10210000F894E016F10699F0F80131918F0148E05A
:102110009BB9000000C037FF8BB9330F000000C02F
:1021200000C000C08BB900C04A9591F7EACF2FBF1D
:102130008FE391E00197F1F700C00000DF91CF91AC
:102140001F910F91FF90EF900895EEE5F2E08081EE
:102150008E7F808360817181828193810E943C0C9B
:10216000109264022FEF80E792E02150804090406F
:10217000E1F700C000000C942410CF92DF92EF92A0
:10218000FF920F931F936B017C01AC0166277727A9
:10219000411551056105710511F080E103C0B701DA
:1021A000A60180E0052F162F272F332701151105D3
:1021B0002105310519F0885FB901A8018A019B0149
:1021C000F4E03695279517950795FA95D1F70115FF
:1021D00011052105310519F08C5FB901A8018A01AB
:1021E0009B01E2E03695279517950795EA95D1F77B
:1021F000011511052105310519F08E5FB901A801FE
:102200007695679557954795452B462B472B09F0B3
:102210008F5F56985E9825982D9826982E98279827
:102220002F98482F50E0FA013197E730F105C8F4B4
:10223000E358FF4F0C943429259A2D9A27C0269AEB
:102240002E9A33C0259A2D9A269A2E9A3FC0259A07
:102250002D9A04C0259A2D9A269A2E9A279A2F9A5B
:1022600035C0813099F018F08230F9F02FC080919C
:102270001E02811153C00E94AB0C60E081E00E94FD
:10228000700C20E04AE963EF83E41DC080911E02D8
:10229000811144C00E94AB0C60E081E00E94700C90
:1022A00020E044ED6EEB85EA0EC080911E028111A4
:1022B00035C00E94AB0C60E081E00E94700C20E011
:1022C0004EED63EE8CEC0E940C2328C080911E0220
:1022D000811124C088E090E00E94BE2860935E02D5
:1022E00070935F028093600290936102862F60FF7B
:1022F00013C0816080935E0286950E94B40C809129
:102300005E0286950E94B40C21E0409161026091CA
:10231000600280915F02D7CF0E94A510C701B6016D
:102320001F910F91FF90EF90DF90CF90089584B1AF
:10233000807F84B985B1807F85B98AB1837F8AB96E
:102340008BB1837F8BB93E984698089580B38C708B
:1023500080BB81B3836F81BB0895BF92CF92DF9220
:10236000EF92FF920F931F93CF93DF93809106011B
:1023700090910701892B91F0809126028F5F8093C5
:10238000260281110BC00E943D0F90E0909307013F
:1023900080930601892B11F40E94B40F92E3E92E79
:1023A00092E0F92E8701C0E0B12C87E0C82ECC0E58
:1023B0008C2F0E94860B8C2D0E94860B8C2F0E94E6
:1023C000DA0BF8019081891721F08083DD24D39402
:1023D00001C0D12C8C2D0E94DA0BF801978189174E
:1023E00019F0878381E001C080E0D82ABD280E94CF
:1023F0009711CF5F0F5F1F4FC730B9F60E94D018FB
:102400006AEF70E00E940C299C01682F80912502E0
:102410008823E9F110922502E0912802F091290227
:10242000DF011E9690E07BEF0AEF10E080818B3F8A
:10243000A9F0482F50E0681728F06901C41AD50A9E
:10244000A60106C0E801C41BD50BAE01420F531F05
:102450004E31510514F0708301C091E03196EA17B6
:10246000FB0721F790932502B11002C0911111C012
:1024700010922402E0912802F09129029091250205
:10248000AAE4B2E0AF01425F5F4F80E007C0B11045
:10249000EFCF809124028111EBCF17C0E701299182
:1024A0007E013C91321741F030813B3F21F4608343
:1024B0002C9391E001C081E031961196E417F50765
:1024C00069F790932502809324028B2DDF91CF91A1
:1024D0001F910F91FF90EF90DF90CF90BF900895E4
:1024E0002091E4003091E50095E64091EC00842FC6
:1024F000817040FF23C08091E80080FD1DC0809165
:102500004203882399F0853099F08091EB0085FD96
:1025100011C04091E4005091E5002417350729F3DC
:10252000915011F09A01E1CF84E0089582E008957E
:1025300083E0089581E0089580E008954091E800E7
:1025400042FFDDCF08958091440387FF11C0809141
:10255000E80082FD05C0809142038111F8CF11C0CF
:102560008091E8008B770BC080914203882349F06B
:102570008091E80080FFF8CF8091E8008E7780930B
:10258000E8000895982F973068F59093E900981720
:1025900039F07091EC002091ED005091F00003C0F3
:1025A000242F762F50E021FD02C09F5FECCF3091A9
:1025B000EB003E7F3093EB003091ED003D7F309398
:1025C000ED003091EB0031603093EB007093EC0044
:1025D0002093ED005093F0002091EE0027FDE5CF11
:1025E00080E008958F708093E90081E00895209144
:1025F0004A0330914B032617370748F061157105E0
:1026000039F42091E8002E772093E80001C0B90149
:10261000FC0120E06115710579F180914203882366
:10262000F1F18530F1F18091E80083FD3CC08091AB
:10263000E80082FD2EC08091E80080FFEBCF209162
:10264000F3008091F20090E0922B6115710551F03A
:102650008830910538F421912093F100615071097F
:102660000196F3CF21E0089709F020E08091E8007F
:102670008E778093E800CECF2111CFCF0AC0809112
:102680004203882361F0853061F08091E80083FD8A
:102690000AC08091E80082FFF2CF80E0089582E0D6
:1026A000089583E0089581E0089580914203843085
:1026B00011F081E0089582E00895CF93DF93CDB7C4
:1026C000DEB72A970FB6F894DEBF0FBECDBF84B732
:1026D000877F84BF0FB6F894A895809160008861C9
:1026E00080936000109260000FBE90E080E80FB60B
:1026F000F89480936100909361000FBE85B7806865
:1027000085BF85B7806885BF0E94B31E0E94D21E18
:102710008091E20084608093E2007894809142038B
:102720008823A1F01091E9001F709091EC00892F8F
:10273000817090FD80E8182B1092E9008091E800EC
:1027400083FD0E949A1B1F701093E90082E084BDF4
:1027500093E095BD9AEF97BD80936E000E943D0F68
:1027600090E090930701809306010E9497110E94C8
:10277000A611A2E3B2E018E5E12E12E0F12EEAE4A0
:10278000F2E011921D9222E0E835F207D1F78EE0D7
:1027900090E00E9446298093280290932902FC0130
:1027A0000E962BEF2193E817F907E1F780E090E010
:1027B0000E94C4288F3E9E4F11F00E9489198CE020
:1027C00090E00E94B62890E0A0E0B0E080932A025A
:1027D00090932B02A0932C02B0932D0289EA809350
:1027E000800089E08093810024982C983F988AB1DA
:1027F0008F7C8AB96E98479A8BB180638BB9769A31
:102800008FE090E00E94BE2860932E0270932F020A
:10281000809330029093310267704FEF649FB00154
:10282000112475956795759567957727709389003D
:102830006093880070938B0060938A0070938D0082
:1028400060938C000E94B40F80E090E00E94C42846
:102850008F3E9E4F11F00E94891982E090E00E9405
:10286000B62880936F020E9478199093410280935A
:10287000400283E090E00E94B628682F70E080E07C
:1028800090E00E945A1B80914202811136C080E084
:1028900090E00E94C4288F3E9E4F21F00E9489192B
:1028A0000E94CA0C88E090E00E94BE2860935E02FD
:1028B00070935F0280936002909361026E7F71F467
:1028C0000E94CA0C88E090E00E94BE2860935E02DD
:1028D00070935F0280936002909361020E94290CC2
:1028E0001092640280915E0280FF04C060E08695D1
:1028F0000E94700C81E080934202609143027091CB
:10290000440280914502909146020E94BD1088E0E9
:1029100091E09093480280934702F0E3CF2EF4E0D9
:10292000DF2E80914203853009F067C08091420319
:10293000843009F441C01092490220E488E190E01B
:102940000FB6F894A895809360000FBE20936000A6
:102950001092640280911D03811117C081E0809361
:102960001D0380915E02982F917090931C038E7FBF
:1029700080935E022FEF30E742E02150304040402C
:10298000E1F700C000000E94241083B7817F8460BB
:1029900083BF83B7816083BF7894889583B78E7F28
:1029A00083BF0FB6F894A8958091600088618093EA
:1029B0006000109260000FBE80914103882309F4EB
:1029C000B0CF0E943D0F90E09093070180930601E5
:1029D0000E9497110E94A611EAE4F2E01192EE160D
:1029E000FF06E1F70E94AD11EAE4F2E08191811166
:1029F0007BC1EE16FF06D1F794CF0E94AD11E0E740
:102A0000F2E0AAE4B2E000E010E0302F2D919191C5
:102A1000922721F180E0BB24B394492F4B21D1F0C0
:102A200089833A832B2181E009F480E08B830E9423
:102A3000D0188160782F9D838C8349815A816B8166
:102A40008D810E948F21F801E059FD4F8081B826C9
:102A5000B08219C08F5FBB0C8630F9F60F5F1F4F35
:102A60000E30110591F68FEF8E838F8318860E94AA
:102A7000D0188160782F9A8789874E815F81688519
:102A80008A850E948F2180916402882309F499C06D
:102A900080916302E0915E02E695E81BE0935A02A2
:102AA000823059F4F0E0E25CFB4FE4910E2F10E02D
:102AB000EBE7AE2EE1E2BE2E58C0863059F4F0E0CE
:102AC000E55CFB4FE4910E2F10E07BE6A72E71E250
:102AD000B72E4BC0893061F4E695F0E0E85CFB4F1F
:102AE000E4910E2F10E066E1A62E60E2B62E3DC006
:102AF0008F3061F4E695F0E0EB5CFB4FE4910E2F34
:102B000010E05DEFA52E50E2B52E2FC0853159F4AF
:102B1000F0E0EE5CFB4FE4910E2F10E04DEAA42EA6
:102B200040E2B42E22C0883199F0833241F4F6019C
:102B3000059114913BECA32E32E2B32E16C08432E1
:102B400071F404EF11E020E4A22E20E2B22E0DC0B9
:102B500008EE13E09AE7A92E90E2B92E06C000ED28
:102B600017E085E1A82E80E2B82E80915B028823D1
:102B700089F010925B020E94D01898012095309540
:102B8000820F931F909359028093580210925D0216
:102B900010925C0280915802909159020E94A618EE
:102BA0008017910770F0E0915802F09159020E0FD2
:102BB0001F1F109359020093580288E592E0F50117
:102BC000099580916C0290916D020E94A6189C015B
:102BD00090916B02992321F02431310508F478C0DB
:102BE000809167021091680281110BC0111192C08F
:102BF0002091690221118EC020916A0221118AC0A0
:102C000067C09F3F19F09F5F90936B02181624F4E2
:102C10000E94F517809367028091670287FF05C0C5
:102C20000E94F517819580936702111624F40E9483
:102C3000F517809368028091680287FF05C00E94A3
:102C4000F517819580936802309167023323E1F094
:102C5000209168022223C1F045EB3403C001112406
:102C6000992319F09093670203C081E08093670273
:102C700035EB2303C0011124992319F090936802C6
:102C800003C081E08093680280916902181624F4E1
:102C90000E94D317809369028091690287FF05C063
:102CA0000E94D31781958093690280916A02181659
:102CB00024F40E94D31780936A0280916A0287FFEE
:102CC00005C00E94D317819580936A020E94DC1888
:102CD0000E94962290916E02891709F422CE0E94DA
:102CE000962280936E021DCE80E189BD82E189BD6E
:102CF00009B400FEFDCF8091D8008F7D8093D8006D
:102D00008091E00082608093E0008091E00081FD8E
:102D1000FCCF07CE9F3F09F076CF87CF80911F036E
:102D20000895CF93DF9300D01F92CDB7DEB7909177
:102D30004203943019F589837B836A8382E0809310
:102D4000E9008FEF9091E800815095FD06C095ED68
:102D50009A95F1F700008111F5CF8091E80085FF89
:102D60000DC040E050E063E070E0CE0101960E94AB
:102D70006E1B8091E8008E778093E8000F900F9093
:102D80000F90DF91CF910895CF93DF93EC010E94D4
:102D90005513823011F0843031F4BE0184E0DF91AC
:102DA000CF910C949116DF91CF910895BC0160589A
:102DB000710983E00C949116CF93DF93EC010E948C
:102DC0005513823011F08430F9F482E08093E900E9
:102DD0008FEF9091E800815095FD06C095ED9A9592
:102DE000F1F700008111F5CF8091E80085FF0CC05C
:102DF00040E050E066E070E0CE010E946E1B8091E2
:102E0000E8008E778093E800DF91CF910895CF930B
:102E1000DF93EC010E945513823011F08430D9F514
:102E200080911201882339F08091400287FF03C00E
:102E300060E282E002C068E081E08093E9008FEF09
:102E40009091E800815095FD06C095ED9A95F1F7B7
:102E500000008111F5CF8091E80085FF1CC08091B2
:102E60001201811105C040E050E068E070E003C04D
:102E700070E040E050E0CE010E946E1B8091E800BF
:102E80008E778093E80080E2FE01A0E2B3E001903B
:102E90000D928A95E1F7DF91CF910895803F39F443
:102EA0008091680287FF6CC01092680269C0813F00
:102EB00029F4809168021816BCF362C090916702F1
:102EC000823F29F497FF5CC01092670259C0833F8C
:102ED00019F41916CCF354C0893F41F4809169026A
:102EE00018160CF04DC0109269024AC08A3F29F4AE
:102EF0008091690287FF44C0F6CF8B3F39F48091FF
:102F00006A0287FF3DC010926A023AC08C3F29F4E2
:102F100080916A021816BCF333C0843F21F480917B
:102F200066028E7F17C0853F21F4809166028D7FF7
:102F300011C0863F21F4809166028B7F0BC0873FD2
:102F400021F480916602877F05C0883F31F480912B
:102F500066028F7E8093660213C08D3F21F48091BC
:102F60001A038E7F0BC08E3F21F480911A038D7F50
:102F700005C08F3F29F480911A038B7F80931A0339
:102F80008091670281110EC08091680281110AC090
:102F900080916902811106C080916A02811102C08C
:102FA00010926B02089580911A0380FD16C081FD76
:102FB00016C082FD18C080916B02882391F0883280
:102FC00090F428E0829FC001112468E270E00E9422
:102FD0002029862F672B29F007C082E0089584E01E
:102FE000089581E0089588E0089580911A0380FD96
:102FF00017C081FD17C082FD19C080916B02882324
:1030000099F08C3398F423E2829FC00111246CE381
:1030100070E00E942029862F672B49F481E00895F3
:1030200088E0089581E1089585E0089583E2089598
:10303000803F21F40E94F517819504C0813F29F457
:103040000E94F517809368020895823F21F40E9440
:10305000F517819504C0833F29F40E94F5178093EA
:1030600067020895893F19F40E94D31705C08A3F6B
:1030700031F40E94D31781958093690208958B3FA4
:1030800021F40E94D317819504C08C3F29F40E943B
:10309000D31780936A020895843F21F480916602D9
:1030A000816017C0853F21F480916602826011C063
:1030B000863F21F48091660284600BC0873F21F433
:1030C00080916602886005C0883F31F48091660275
:1030D00080618093660208958D3F21F480911A03E8
:1030E00081600BC08E3F21F480911A03826005C07D
:1030F0008F3F29F480911A03846080931A03089506
:1031000078941F920F920FB60F9211248F939F9372
:10311000AF93BF938091160390911703A09118036A
:10312000B09119030196A11DB11D809316039093D0
:103130001703A0931803B0931903BF91AF919F9108
:103140008F910F900FBE0F901F901895CF92DF9226
:10315000EF92FF920F931F932FB7F89440911603AD
:103160005091170360911803709119032FBF6A01E2
:103170007B01EE24FF248C0120E030E0C016D10654
:10318000E206F30610F4415051099A01281B390B4D
:10319000C9011F910F91FF90EF90DF90CF9008959C
:1031A0002FB7F8948091160390911703A0911803FC
:1031B000B09119032FBF0895E0914702F0914802A2
:1031C000309749F082E0809365020480F581E02D1C
:1031D00085E692E009950E94D01890936D02809345
:1031E0006C0208951F920F920FB60F9211248F93C5
:1031F0009F93AF93BF9380914902811113C0809137
:10320000160390911703A0911803B09119034196EA
:10321000A11DB11D8093160390931703A09318036B
:10322000B0931903BF91AF919F918F910F900FBEF3
:103230000F901F901895209112012223C9F0209120
:10324000400227FF15C0262F2695269526952E315C
:10325000C8F4FC01E20FF11D677081E090E001C04D
:10326000880F6A95EAF78095928189238283089571
:10327000FC0106962281621301C012823196E81782
:10328000F907C1F70895209112012223C1F020917E
:10329000400227FF14C0262F2695269526952E310D
:1032A00030F5FC01E20FF11D677081E090E001C094
:1032B000880F6A95EAF79281892B82830895FC0131
:1032C00032962FEF30E04191641789F02F3F19F4C7
:1032D000411101C0232F3F5F3630A9F72F3F39F04E
:1032E000FC01E20FF11D27FDFA9562830895089510
:1032F000CF9384E090E00E94B628C82F81E290E04E
:103300000E94B6282C2F30E0A901582BCA01CF917A
:1033100008956FEE7EEF80E090E00E94E82860E084
:1033200082E090E00E94CA2860E083E090E00E9482
:10333000CA281092120310921303109214031092D1
:10334000150360E084E090E00E94CA2860E081E21A
:1033500090E00E94CA2860E085E090E00E94CA28C0
:1033600060E086E090E00E94CA286FEF87E090E07E
:103370000E94CA2840E050E0BA0188E090E00E9434
:10338000DC2860E08DE090E00E94CA2840E050E038
:10339000BA0188E190E00E94DC2860E087E190E0DB
:1033A0000E94CA2840E050E0BA018CE190E00E94FF
:1033B000DC2860E080E290E00E94CA2810922E0291
:1033C00010922F02109230021092310284E080613C
:1033D00080932E0240912E0250912F026091300274
:1033E000709131028FE090E00E94DC2840E050E0D4
:1033F000BA0183E190E00C94DC28809111038111E3
:103400001092110308959091100380910F03892B5E
:1034100020910E03982F922B90937E02809111039E
:103420008823D9F0892B80937E0280911201882312
:1034300031F08091400287FF02C08EE101C086E03A
:10344000E0E8F2E090E0815028F021912223D9F3C6
:103450009F5FF9CF91110E94FD19E0914702F09111
:1034600048023097A9F080911201882359F0809189
:10347000400287FF07C080917E0280937F0285E033
:1034800080937E020280F381E02D8EE792E0099422
:103490000895BF92CF92DF92EF92FF920F931F9306
:1034A000CF93DF938C01C0904302D0904402E09010
:1034B0004502F09046028091120390911303A0916F
:1034C0001403B0911503C82AD92AEA2AFB2ACFE1AE
:1034D000D0E0D701C6010C2E04C0B695A7959795EC
:1034E00087950A94D2F780FD04C0219790F7B12CFC
:1034F00007C0BC2EB8018C2F0E948F0D0197A9F335
:103500008B2DDF91CF911F910F91FF90EF90DF9066
:10351000CF90BF900895CF93DF93EC010E94491A9A
:10352000BE010E948F0DDF91CF910895292F220FA8
:10353000920F990F890F682F669566956695982F5B
:10354000977085E0689FB001112440E050E080E072
:10355000FB01E40FF51FEA52FD4F208130E0092EF8
:1035600002C0369527950A94E2F721703327042E7E
:1035700001C0220F0A94EAF7822B4F5F5F4F45305C
:10358000510531F70895292F220F920F990F890FB6
:10359000E82FE695E695E695877051E001C0550F56
:1035A0008A95EAF785E0E89FF0011124EA52FD4F81
:1035B00020E030E070E04081CB01022E02C0969501
:1035C00087950A94E2F78170819584278523842763
:1035D00081932F5F3F4F2530310569F708950E9491
:1035E000BD10609343027093440280934502909310
:1035F00046020C949F260F931F9341E050E060E039
:1036000070E004C0440F551F661F771F8A95D2F7DC
:103610004095509560957095809143029091440239
:10362000A0914502B09146028A019B01082319230B
:103630002A233B23C901B8011F910F910C94EF1A63
:1036400020910D038095822380930D03982F97700E
:1036500079F430E0482F082E000C550B241735075D
:1036600039F08595859585950E94FB1A10920D037A
:1036700008950F931F9341E050E060E070E004C0B4
:10368000440F551F661F771F8A95D2F7809143021A
:1036900090914402A0914502B09146028A019B019B
:1036A000082B192B2A2B3B2BC901B8011F910F9115
:1036B0000C94EF1A60931203709313038093140316
:1036C000909315030C949F268091D5029091A402AB
:1036D000891719F08F5F8770FBCF0895EF92FF92E3
:1036E0000F931F93CF93DF937C018B010E94701285
:1036F000811119C0E70101151105A1F08091E800C1
:1037000085FD0AC08091E8008E778093E8000E94D2
:103710007012882381F307C089918093F1000150D2
:103720001109E9CF80E0DF91CF911F910F91FF90B8
:10373000EF9008951F93CF93DF93CDB7DEB7AA978D
:103740000FB6F894DEBF0FBECDBFE4E4F3E0809186
:10375000F100819323E0EC34F207C9F7809145032F
:10376000833009F460C030F4813071F0823009F4A4
:103770009AC0B1C08A3009F486C08B3009F46BC09E
:10378000893009F0A8C020C080914403813A09F033
:10379000A2C08091E800877F8093E8008091480371
:1037A00090914903892B21F460E280E293E003C009
:1037B00060E080E090E070E00E94F7128091E80005
:1037C0008B778093E80087C080914403813209F0B1
:1037D00082C08091480390914903029708F07BC012
:1037E0008091E800877F8093E8008091E80082FD67
:1037F00005C0809142038111F8CF6DC02091F30084
:103800008091F20090E0922B029729F48091F100D0
:103810008B7F813021F48091F10080931F03809190
:10382000E8008B7754C080914403813A09F053C07B
:103830008091480390914903892B09F04CC08091F5
:10384000E800877F8093E8008091E80080FFFCCF4C
:103850008091120137C0809144038132E1F580915B
:10386000480390914903892BB1F58091E800877F47
:103870008093E8000E94A312809146038093120176
:103880000E94BA2628C080914403813221F580919C
:10389000E800877F8093E8000E94A312809147038D
:1038A00080931E0318C080914403813AA1F4809153
:1038B000E800877F8093E8008091E80080FFFCCFDC
:1038C00080911E038093F1008091E8008E778093B1
:1038D000E8000E94A3128091E80083FFD8C1809184
:1038E000440390914503492F50E04A30510508F0B8
:1038F000CEC1FA01EC57FF4F0C943429803821F0E7
:10390000823809F0C4C108C08091400390914103FE
:10391000992389F082600FC0809148038F708730AF
:1039200008F0B5C18093E9008091EB0085FB882702
:1039300080F91092E9009091E800977F9093E80059
:103940008093F1001092F10071C1282F2D7F09F0B2
:103950009EC1882319F0823061F099C1809146039D
:10396000813009F094C1933009F080E080934103E5
:103970002EC08091460381112AC0809148038F7028
:103980002FEF280F263008F082C18093E9002091A4
:10399000EB0020FF1CC0933021F48091EB0080628B
:1039A00014C09091EB0090619093EB0021E030E027
:1039B000A90102C0440F551F8A95E2F74093EA001F
:1039C0001092EA008091EB0088608093EB001092E7
:1039D000E9008091E800877F2CC1811158C11091C6
:1039E00046031F778091E3008078812B8093E3006A
:1039F0008091E800877F8093E8000E94A312809165
:103A0000E80080FFFCCF8091E30080688093E300B2
:103A1000111102C082E001C083E08093420337C1EC
:103A20008058823008F033C180914603909147035B
:103A30008C3D53E0950779F583E08A838AE2898398
:103A40004FB7F894DE01139620E03EE051E2E32FF9
:103A5000F0E050935700E49120FF03C0E295EF702F
:103A60003F5FEF708E2F90E0EA3010F0C79601C0F4
:103A7000C0968D939D932F5F243149F74FBF80915E
:103A8000E800877F8093E8006AE270E0CE0101964B
:103A90000E94F712BAC04091480350914903292F60
:103AA000332723303105B1F068F42130310509F4B2
:103AB000FDC02230310509F0EAC08BE390E0E2E47A
:103AC000F5E050C02132310581F12232310509F48F
:103AD00039C0DDC0992781309105B9F070F082308E
:103AE0009105D9F0039709F0D2C0EFE8F5E0E49131
:103AF0008E2F90E0EFE8F5E032C0E7EBF5E0E491DF
:103B00008E2F90E0E7EBF5E02AC0EDEAF5E0E491D6
:103B10008E2F90E0EDEAF5E022C0E5E9F5E0E491D2
:103B20008E2F90E0E5E9F5E01AC04115510509F442
:103B3000C2C04130510509F0AAC089E090E0EDE62D
:103B4000F5E010C04115510509F4BAC041305105E6
:103B500009F09DC080EC90E0E2E4F4E003C000973F
:103B600009F495C02091E800277F2093E800209178
:103B70004A0330914B038217930708F49C0140E0FD
:103B80002115310589F180914203882309F43DC054
:103B90008530D9F18091E80083FD37C08091E8003D
:103BA00082FD2FC08091E80080FFEACF4091F300B2
:103BB0008091F20090E0942B2115310559F0883066
:103BC000910540F444914093F10031962150310920
:103BD0000196F2CF41E0089709F040E08091E800BB
:103BE0008E778093E800CCCF4111CDCF0AC0809171
:103BF0004203882351F0853041F08091E80083FD35
:103C000004C08091E80082FFF2CF8091E8008B77BA
:103C10008093E8003CC08038D1F58091E800877F30
:103C20008093E800809143038093F1008091E80045
:103C30008E778093E8000E94A31229C0811127C0CB
:103C400080914603909147039927029704F580914C
:103C5000E800877F8093E8001091460310934303A8
:103C60000E94A312111106C08091E30087FD02C0DB
:103C700081E001C084E08093420342E061EC81E096
:103C80000E94C21242E261EC82E00E94C212809164
:103C9000E80083FF1AC08091E800877F8093E800E6
:103CA0008091EB0080628093EB000FC082E190E096
:103CB000EDE7F5E057CF89E090E0E4E5F5E052CF9D
:103CC00080E490E0E2E0F5E04DCFAA960FB6F894DC
:103CD000DEBF0FBECDBFDF91CF911F9108951F9220
:103CE0000F920FB60F9211242F933F934F935F9330
:103CF0006F937F938F939F93AF93BF93CF93DF93F4
:103D0000EF93FF93C091E900CF708091EC00D82F22
:103D1000D17080FDD0E81092E9008091F000877F9B
:103D20008093F00078940E949A1B1092E900809191
:103D3000F00088608093F000CD2BCF70C093E90035
:103D4000FF91EF91DF91CF91BF91AF919F918F91B3
:103D50007F916F915F914F913F912F910F900FBE87
:103D60000F901F901895E8EDF0E080818E7F8083A2
:103D70001092E2001092DA001092E100A0EEB0E0A2
:103D80008C9181608C9380818F77808319BCA7EDA3
:103D9000B0E08C918E7F8C9380818F7E8083109297
:103DA0001B030895CF92DF92EF92FF920F931F9320
:103DB000CF93DF93C8EDD0E088818F7E8883E7EDD5
:103DC000F0E080818160808384E082BF81E0809325
:103DD0001B0388818E7F888302EE10E0F801108239
:103DE0001092DA0081EEC82ED12CF6011082888163
:103DF0008F77888388818068888388818F7D888396
:103E000019BC109242031092430310924103109286
:103E1000400390EEE92EF12CF70180818B7F8083A7
:103E200088818160888342E060E080E00E94C21265
:103E3000F60180818E7F8083F8018081816080839C
:103E4000808188608083F70180818E7F8083888174
:103E500080618883DF91CF911F910F91FF90EF9048
:103E6000DF90CF9008951F920F920FB60F921124FA
:103E70002F933F934F935F936F937F938F939F9372
:103E8000AF93BF93EF93FF938091E10082FF09C04E
:103E90008091E20082FF05C08091E1008B7F8093DA
:103EA000E1008091DA0080FF2AC08091D80080FF75
:103EB00026C08091DA008E7F8093DA008091D9004D
:103EC00080FF18C080E189BD82E189BD09B400FE90
:103ED000FDCF81E08093420380911B0381110FC0CD
:103EE0000E94B31E0E94D21E8091E20084608093E3
:103EF000E20005C019BC1092420310921B0380918E
:103F0000E10080FF17C08091E20080FF13C0809124
:103F1000E2008E7F8093E2008091E20080618093D6
:103F2000E2008091D80080628093D80019BC85E0BF
:103F3000809342038091E10084FF3BC08091E200C6
:103F400084FF37C080E189BD82E189BD09B400FEEC
:103F5000FDCF8091D8008F7D8093D8008091E100C3
:103F60008F7E8093E1008091E2008F7E8093E2005B
:103F70008091E20081608093E20080914303882376
:103F800011F084E007C08091E30087FD02C081E06A
:103F900001C083E0809342030E94BA260E949622C9
:103FA00010921D0380911C0381110E94AB0C0E9492
:103FB0001C248091E10083FF27C08091E20083FFF1
:103FC00023C08091E100877F8093E10082E08093AD
:103FD0004203109243038091E1008E7F8093E100C1
:103FE0008091E2008E7F8093E2008091E200806108
:103FF0008093E20042E060E080E00E94C212809183
:10400000F00088608093F000FF91EF91BF91AF9135
:104010009F918F917F916F915F914F913F912F91E0
:104020000F900FBE0F901F9018950895EF92FF927A
:104030001F93CF93DF93EC018FE4E82E83E0F82EFB
:1040400010E08C8197014091610260916002810FC4
:104050000E94D90C1F5E84E0E80EF11C1F3F89F717
:104060000E9424109A818C8190FF02C08F5F01C052
:1040700081508C83DF91CF911F91FF90EF90089535
:10408000EF92FF920F931F93CF93DF938C01CFE4B6
:10409000D3E0E12CF12CF8018481F7E0EF16F10474
:1040A0001CF4882339F002C0811104C09E014091A4
:1040B000610202C09E0140E06091600280915F0257
:1040C0000E94D90C8FEFE81AF80A24969FE0E916AF
:1040D000F10409F70E942410F801848190E0019610
:1040E000817099278483DF91CF911F910F91FF9069
:1040F000EF900895EF92FF920F931F93CF93DF936A
:10410000EC018C819D810196817099279D838C8320
:104110008FE4E82E83E0F82E10E005E5212F2695A8
:104120008C819D81820F911D817097014091610268
:1041300060916002809F802D11240E94D90C1F5F26
:1041400084E0E80EF11C1F3049F7DF91CF911F91F9
:104150000F91FF90EF900C9424100F931F93CF9327
:10416000DF93CFE4D3E0FE0111821082128213822A
:10417000349683E0EB38F807B9F700E010E080915F
:104180004D03082E000C990B0817190794F0809125
:104190001F01082E000C990B8017910754F09E0107
:1041A000409161026091600280915F020E94D90C8F
:1041B00004C0198218821A821B820F5F1F4F249637
:1041C0000F301105E1F60E94241080911E0190919C
:1041D0004D03980F90934D0320911F01280F2093BA
:1041E0001F01121614F49E301CF0819580931E015D
:1041F000DF91CF911F910F910895BF92CF92DF92DF
:10420000EF92FF920F931F93CF93DF93FC01828174
:1042100080FF03C0DD24DA9402C0DD24D3940FE4D0
:1042200013E0C0E0D0E02FE0B22EF801118210823E
:104230001282138294E0E92EF12CC12C80914C0360
:104240008C0D80312CF06B2D0E94FE28892F02C02E
:1042500087FD815F082E000C990BC817D90791F4D0
:10426000809161028E9DA0018F9D500D1124559566
:1042700047955595479598016091600280915F023E
:104280000E94D90CCD0CF1E0EF1AF108B9F6219695
:104290000C5F1F4FCF30D10541F60E942410809152
:1042A0004C0391E0D91206C0811102C08EE007C014
:1042B000815005C090E00196BE010E9420298093A4
:1042C0004C03DF91CF911F910F91FF90EF90DF9002
:1042D000CF90BF900895CF93DF93EC01EEE5F2E02D
:1042E000438162818C810E946E0D8C818F5F8C83F3
:1042F000DF91CF910895CF93DF93EC01EC81F0E053
:10430000E054FA4F4491EEE5F2E0628181810E942F
:104310006E0D8C818F5F8C83DF91CF9108950F9309
:104320001F93CF93DF93CDB7DEB767970FB6F8949F
:10433000DEBF0FBECDBF4B8B5C8B6D8B7E8B8F8BAF
:104340000E891F890115110531F05F3F31F481E0BD
:104350004F3F19F403C081E001C080E080FD32C00E
:10436000242F30E0A1E0B0E0042E01C0AA0F0A948F
:10437000EAF7852F90E0662319F07091A00305C03D
:10438000FC01EF56FC4F70817A237723A1F046E0C1
:10439000489FF001499FF00D1124E20FF31FEE0F2B
:1043A000FF1FEB5BFE4F40815181FC01EF56FC4F3C
:1043B0009081A92B06C0FC01EF56FC4FA09580818F
:1043C000A823A08386E0FE013D96DF01982F1D9271
:1043D0009A95E9F74D875E876F87198B088BDE0109
:1043E000179601900D928A95E1F7CE0107960E94EB
:1043F000C32481113EC086E0FE013796DE0111968E
:1044000001900D928A95E1F7FF81E8856A857B85A9
:104410006115710531F0EF3F31F481E0FF3F19F490
:1044200003C081E001C080E080FD23C02091A40290
:1044300030E0C9010196877099274091D50250E07C
:104440008417950779F1F983EA837D836C8396E07D
:10445000929FD001939FB00D1124AB55BD4FFE012B
:10446000319601900D929A95E1F78093A4020E94F3
:10447000641B16E08091D5029091A4028917F9F08F
:10448000189FC00111248B559D4F0E94C32488237F
:10449000B1F08091D50290E00196877099278093C2
:1044A000D502E8CF0E94BA261092A4021092D5023B
:1044B000EEE9F2E086E0DF011D928A95E9F7679662
:1044C0000FB6F894DEBF0FBECDBFDF91CF911F9125
:1044D0000F91089520918F03309190032817390789
:1044E00071F09093900380938F03E0914702F091D5
:1044F0004802309721F00084F185E02D0994089559
:1045000020918D0330918E032817390771F0909315
:104510008E0380938D03E0914702F091480230971B
:1045200021F00680F781E02D09940895E09147027B
:10453000F0914802309721F00190F081E02D09942C
:1045400080E0089590915E0290FF04C096959817C0
:1045500040F003C0811105C090E0961710F40C9450
:10456000C00C0C94B40C882311F0FA0101C0FB01BB
:10457000099490915E0290FF0DC0EFE4F3E0818317
:10458000608342831382349693E0EB38F907B9F7DE
:104590000C94241008950F931F93CF93DF9300D0B2
:1045A00000D0CDB7DEB78C0180914E0381110AC0D7
:1045B0009E012F5F3F4F4FEF6FEF0E94D90C8A8112
:1045C00080934E03F8018481813051F028F08230CD
:1045D00061F440914E030AC080914E0340E007C051
:1045E00060914E0340E080E003C040E080E060E086
:1045F0000E94B922F801848190E0019663E070E0A6
:104600000E94202984830F900F900F900F90DF91CC
:10461000CF911F910F9108955F926F927F928F9229
:104620009F92AF92BF92CF92DF92EF92FF920F9341
:104630001F93CF93DF9300D000D0CDB7DEB7182FF4
:10464000762E042F622E90915E0290FF6DC0E92FAE
:10465000E695AE2FB0E0A05EBE4F8C9180936302D2
:104660009E7F923061F49E012F5F3F4F812F0E9409
:10467000D90C4B8169818A810E94B92243C0823062
:1046800019F4009161023EC0863019F410915F0266
:1046900039C08930D9F38931A9F5E9518E2F81705C
:1046A000582EE695F0E0E554FA4FA590B4908FE4CB
:1046B000C82E83E0D82EE12CF12CBB249FE0892E5C
:1046C000912CAE9CC001AF9C900DBE9C900D11240E
:1046D000B4010E940C29812F511002C0860F01C025
:1046E000861B9601402F672D0E94D90C8FEFE81A88
:1046F000F80A84E0C80ED11C8FE0E816F10409F72F
:104700000E94241010935F02709260020093610275
:10471000662051F060915E0270915F0280916002AC
:10472000909161020E943C0C0F900F900F900F909F
:10473000DF91CF911F910F91FF90EF90DF90CF907D
:10474000BF90AF909F908F907F906F905F900895F3
:104750000F931F93CF93DF93C62FD42F122FFC01FB
:1047600082818823C9F0609320020E94D018909320
:104770008C0380938B0380E28C0F883008F057C045
:10478000C77081E001C0880FCA95EAF7DF91CF9129
:104790001F910F910C94EF2680912002681330C076
:1047A00080918B0390918C030E94A618883C910500
:1047B00038F500E20D0FCD17B9F080E28C0F88308C
:1047C00040F4C77081E001C0880FCA95EAF70E94E3
:1047D000E426083028F581E09D2F977001C0880FEE
:1047E0009A95EAF70E94EF26812F0E9460270830F1
:1047F000F0F4D77081E001C0880FDA95EAF70AC0BB
:1048000080E28C0F883098F4C77081E001C0880F77
:10481000CA95EAF7DF91CF911F910F910C94E4268E
:10482000812FDF91CF911F910F910C946027DF9121
:10483000CF911F910F91089560915E02669570E08F
:104840004BE050E083E191E00E94672A892B19F444
:1048500081E0809364020E94D01890935902809363
:1048600058020895CF938091A30282958F7009F02A
:104870005FC08091A002882309F45AC08091D502BC
:10488000B091A40270919E02A0919F024091A1025A
:104890005091A20291E07F3F09F090E0692FC6E0BD
:1048A0008B1709F445C04115510521F0AF3F21F0A8
:1048B00020E003C021E001C0262F90E020FD35C09C
:1048C000C89FF001C99FF00D1124EB55FD4F2181C8
:1048D0002A132BC02081271328C02281211125C033
:1048E000238134812417350710F421503109241B0A
:1048F000350B283C3105C8F42091A3022F702061AC
:104900002093A30226E0289FF001299FF00D112497
:10491000E655FD4F80818F70806180838EE992E043
:104920000E947F03CF910C94641B01968770B8CFCF
:10493000CF9108950E948B1A292F2F70E92FE295AD
:10494000EF704E2F50E0FA013297EE30F105B8F4D7
:10495000E257FF4F0C943429803F99F018F4883EB9
:1049600070F40FC0843F59F40CC0883E50F0813F72
:1049700031F407C0822F869586958695089580E04C
:10498000089581E00895AF92BF92CF92DF92EF92A7
:10499000FF920F931F93CF93DF93CDB7DEB761974D
:1049A0000FB6F894DEBF0FBECDBF8C0185E0F801D5
:1049B000DE011D9601900D928A95E1F7D8013C9198
:1049C00011962C9111971296EC9050919E02609145
:1049D0009F028091A1029091A202009731F06F3F57
:1049E00031F441E05F3F19F403C041E001C040E011
:1049F000B42FB170BB2E40FD43C1F801C380D480F9
:104A0000A090A002AA2009F4E2C04091A302C81617
:104A1000D90628F0D601A81BB90BCD0104C080959A
:104A200090958C0D9D1DFF24F394883C910548F0D2
:104A3000F12C407F09F090C08EE992E00E947F0344
:104A400017C1842F807F09F052C0621312C0531324
:104A500010C0FE2CE1100DC04F7040614093A302C6
:104A60008EE992E00E947F038091A302F801858382
:104A700054C1CD2831F02F3F31F481E03F3F19F48C
:104A800003C081E001C080E080FD03C081E08E258D
:104A900002C080E090E0F82FF170FF2E80FF1CC074
:104AA0008091D5024091A40256E0841709F412C106
:104AB00090E0589FF001599FF00D1124EB55FD4FE8
:104AC0006181261306C06081361303C06281E6123D
:104AD00003C001968770E9CFFE2CEE2009F41DC1BA
:104AE0008091A30281608093A302F12C16C162130E
:104AF00008C0531306C0E11004C08091A302F8015E
:104B000099C03D872E878D859E850E949A24882393
:104B100069F1EE2059F12091A302822F82958F70C6
:104B200090E0029774F080919E0290919F02988786
:104B30008F831986DB86CA862C87CE0107960E9452
:104B40007F0386E0F801AEE9B2E001900D928A950C
:104B5000E1F70E9432240DC0621771F03D872E8765
:104B60008D859E850E949A2481111AC0C8010E94D9
:104B70007F03FF24F394D1C05313F0CFE110EECFA5
:104B80008091A302F8018583C8010E947F0386E01B
:104B9000EEE9F2E0DF011D928A95E9F7FA2CBDC03B
:104BA000EE2021F32091A302822F82958F7090E056
:104BB00002973CF280919E0290919F029A83898392
:104BC0001B82DD82CC822E83CE010196B8CFC8161F
:104BD000D90638F0C81AD90AB8ECCB16D10450F06F
:104BE00007C0809590958C0D9D1D883C910510F017
:104BF000F12C3EC0FE2CEE2009F4B8CF621327C082
:104C0000531325C02091A30220FD18C0822F829546
:104C10008F70482F50E04115510581F0F801258330
:104C20004F30510541F08F5F982F9295907F822FE2
:104C30008F70892B8583C8010E947F0386E0F8016D
:104C4000AEE9B2E001900D928A95E1F766C03D872A
:104C50002E878D859E850E949A24811172CF809126
:104C6000A30281608093A302C8010E947F0355C004
:104C7000EEE9F2E086E0DF011D928A95E9F74DC08A
:104C8000EE2009F473CF3D872E878D859E850E9487
:104C90009A24F82E882309F469CF86E0F801AEE95A
:104CA000B2E001900D928A95E1F780919E02909179
:104CB0009F020E948B1A92959F70963041F48091CA
:104CC000A00391E089278093A00390939F030E9403
:104CD000322423C03D872E878D859E850E948B1AA6
:104CE000292F22952F70223028F49F7039F08111DE
:104CF00005C00BC0243028F49F7049F4805E8830D2
:104D000020F0C8010E947F03BF2CFB2C06C0D801F5
:104D100015969C91907F91F7F8CF8F2D61960FB6E5
:104D2000F894DEBF0FBECDBFDF91CF911F910F91E1
:104D3000FF90EF90DF90CF90BF90AF9008951092CA
:104D40000F0310920E030E94031AE5E6F2E086E0DC
:104D5000DF011D928A95E9F710926B0210921A03F7
:104D60000E94DC1880E090E00E94802280E090E0C9
:104D70000C946A221092100380911201882331F062
:104D80008091400287FF02C08EE101C086E0E0E82A
:104D9000F2E0DF011D928A95E9F70C949F268823A3
:104DA00041F0809590910F03892380930F030C9419
:104DB000031A0895882339F090910F03892B80936B
:104DC0000F030C94031A0895882341F08095909165
:104DD00010038923809310030C94031A08958823E9
:104DE00039F090911003892B809310030C94031ACF
:104DF0000895882309F463C0823869F40E949622DA
:104E000081FF5DC069E38EE792E00E9443190E9432
:104E1000031A69E30EC0833891F40E94962280FF42
:104E20004EC063E58EE792E00E9443190E94031A88
:104E300063E58EE792E00E941B190C94031A8438F4
:104E400069F40E94962282FF3AC067E48EE792E0FE
:104E50000E9443190E94031A67E4EBCF9CEF980F5E
:104E6000913A10F4682FE5CF90E2980F983088F4CB
:104E7000877021E030E0A90102C0440F551F8A95D8
:104E8000E2F7CA0180959091100389238093100363
:104E9000D4CF9BE5980F933020F480E090E00C9401
:104EA000802298E5980F973120F480E090E00C94F0
:104EB0006A22803F20F00E944E170C94DC1808955F
:104EC000CF93C82F0E947327C93349F42FEF87EE81
:104ED00093E0215080409040E1F700C000008C2F0B
:104EE000CF910C94F926882309F489C08238B1F453
:104EF0000E94962281FD83C069E38EE792E00E94C2
:104F000043190E94031A2FEF41EE54E02150404014
:104F10005040E1F700C0000069E317C08338D9F4BE
:104F20000E94962280FD6BC063E58EE792E00E94AE
:104F300043190E94031A8FEF91EE24E081509040B4
:104F40002040E1F700C0000063E58EE792E00E9498
:104F50001B190C94031A8438B1F40E94962282FD26
:104F60004EC067E48EE792E00E9443190E94031A44
:104F70004FEF51EE84E0415050408040E1F700C0D7
:104F8000000067E4E2CF9CEF980F913A30F4682F6D
:104F90008EE792E00E944319DCCF90E2980F9830A0
:104FA00080F4877021E030E0A90102C0440F551F52
:104FB0008A95E2F7CA0190911003892B8093100320
:104FC000C8CFEBE5E80FE33038F4F0E0E351FE4FF3
:104FD000808190E00C948022E8E5E80FE73148F406
:104FE000F0E0EE0FFF1FE051FE4F808191810C94A5
:104FF0006A22803F20F00E9418180C94DC18089553
:105000001092B9008CE08093B8000895EF92FF925F
:105010000F931F93CF93DF93182FEB011092BC00D7
:1050200084EA8093BC000E94D0187C018091BC006F
:1050300087FD0EC0CF3F8FEFD807C1F30E94D01875
:105040008E199F098C179D0788F38EEF9FEF2EC056
:105050008091B900887F883041F08091B900887FC5
:10506000803119F08FEF9FEF21C01093BB0084E8CF
:105070008093BC000E94D0188C018091BC0087FDF9
:105080000CC0CF3F8FEFD807C1F30E94D018801B10
:10509000910B8C179D0788F3D8CF8091B900887F3A
:1050A000883111F08034F1F680E090E0DF91CF910B
:1050B0001F910F91FF90EF9008950F931F93CF933F
:1050C000DF93EB018093BB0084E88093BC000E94D7
:1050D000D0188C018091BC0087FD0EC0CF3F8FEFB0
:1050E000D807C1F30E94D018801B910B8C179D0725
:1050F00088F38EEF9FEF0CC02091B900287F81E0EC
:1051000090E0283211F480E090E09195819591092A
:10511000DF91CF911F910F9108950F931F93CF931C
:10512000DF93EC0184E88093BC000E94D0188C01CE
:105130008091BC0087FD0EC0CF3F8FEFD807C1F331
:105140000E94D018801B910B8C179D0788F38EEF5F
:105150009FEF03C08091BB0090E0DF91CF911F9142
:105160000F91089584E98093BC000895F999FECFCA
:1051700092BD81BDF89A992780B50895A6E1B0E067
:1051800044E050E00C94F028A8E1B0E042E050E0A8
:105190000C94F028262FF999FECF92BD81BDF89A84
:1051A000019700B4021639F01FBA20BD0FB6F8946B
:1051B000FA9AF99A0FBE08950396272F0E94CB28DA
:1051C0000E94CA28252F0E94CB28242F0C94CB287C
:1051D0000196272F0E94CB280C94CA28DC01CB0112
:1051E000FC01F999FECF06C0F2BDE1BDF89A3196F7
:1051F00000B40D9241505040B8F7089587FB082E37
:10520000062687FD819567FD61950E943A290EF477
:10521000919507FC81950895AA1BBB1B51E107C01E
:10522000AA1FBB1FA617B70710F0A61BB70B881F36
:10523000991F5A95A9F780959095BC01CD010895C5
:1052400097FB072E16F4009407D077FD09D00E9433
:105250000C2907FC05D03EF4909581959F4F089549
:10526000709561957F4F0895EE0FFF1F0590F491A3
:10527000E02D0994991B79E004C0991F961708F056
:10528000961B881F7A95C9F7809508950F931F93F1
:10529000CF93DF938230910510F482E090E0E091AB
:1052A000A303F091A40320E030E0A0E0B0E0309749
:1052B00019F1408151810281138148175907C8F0C3
:1052C0008417950769F4109731F012960C93129792
:1052D00013961C9327C00093A3031093A40322C02A
:1052E0002115310519F04217530718F49A01BD0131
:1052F000EF01DF01F801DBCF21153105F9F0281BA3
:10530000390B2430310580F48A819B816115710548
:1053100021F0FB019383828304C09093A4038093C4
:10532000A303FE01329644C0FE01E20FF31F8193F6
:10533000919322503109398328833AC02091A103E7
:105340003091A203232B41F42091020130910301FB
:105350003093A2032093A103209100013091010119
:105360002115310541F42DB73EB74091040150910C
:105370000501241B350BE091A103F091A203E21774
:10538000F307A0F42E1B3F0B2817390778F0AC0168
:105390004E5F5F4F2417350748F04E0F5F1F509345
:1053A000A2034093A1038193919302C0E0E0F0E057
:1053B000CF01DF91CF911F910F910895CF93DF938C
:1053C000009709F481C0FC01329713821282A091E8
:1053D000A303B091A403109781F420813181820F3F
:1053E000931F2091A1033091A2032817390751F58B
:1053F000F093A203E093A10367C0ED0120E030E049
:10540000CE17DF0740F44A815B819E0141155105AB
:10541000F1F0EA01F5CFD383C28340815181840F3B
:10542000951FC817D90759F488819981840F951F52
:105430000296918380838A819B8193838283211545
:10544000310529F4F093A403E093A3033DC0E901DF
:10545000FB83EA8349915991C40FD51FEC17FD07CF
:1054600061F480819181840F951F0296E9019983EF
:105470008883828193819B838A83E0E0F0E01296A7
:105480008D919C911397009719F0FD01DC01F7CFE6
:105490008D919C9111979D012E5F3F4F820F931F1D
:1054A0002091A1033091A2032817390769F430979E
:1054B00029F41092A4031092A30302C01382128253
:1054C000B093A203A093A103DF91CF910895FC01B3
:1054D0004150504030F001900616D1F73197CF017E
:0C54E0000895882799270895F894FFCFBD
:1054EC000000A503200020008E160717DC16D61628
:1054FC00C4160101191A1B1C1D1E1F20212201029A
:10550C000001020202020606060909090909090F2F
:10551C000F0F0F0F0F15151518191919191919192E
:10552C001919192324000D010D020D030D040D058D
:10553C000D000C010C020C030C040C050C000B01EF
:10554C000B020B030B040B050B000A010A020A03E6
:10555C000A040A050A0009010902090309040905DC
:10556C0009000801080208030804080508000701DF
:10557C0007020703070407050700060106020603D6
:10558C0006040605060005010502050305040505CC
:10559C0005000401040204030404040504000301CF
:1055AC0003020303030403050300020102020203C6
:1055BC0002040205020001010102010301040105BC
:1055CC000100000100020003000400050081828339
:1055DC00E200E900EA00B500B600B700CD00830197
:1055EC00CC008A019201940121022302240225029B
:0E55FC00260227022A02B300B4006F007000DE
:00000001FF
