:100000000C9460030C947D030C947D030C947D038D
:100010000C947D030C947D030C947D030C947D0360
:100020000C947D030C947D030C941B1F0C94571EA1
:100030000C94DA180C947D030C947D030C947D03CE
:100040000C947D030C947D030C947D030C947D0330
:100050000C947D030C9468180C947D030C947D0320
:100060000C947D030C947D030C947D030C947D0310
:100070000C947D030C947D030C947D030C947D0300
:100080000C947D030C947D030C947D030C947D03F0
:100090000C947D030C947D030C947D030C947D03E0
:1000A0000C947D030C947D030C947D03FC064407A3
:1000B00049074E07530758075D07620767076C0734
:1000C000710794048B078E0791079407970796048E
:1000D0009A07B207530853088D088D08D808F4080A
:1000E000BD0A1D0B3609140A250A250A280C2B0CFB
:1000F0002E0C310C340C370C3A0CFF0F04100E1080
:10010000021007100C100A10661C8D1C2F1E8D1C6F
:100110002F1ED51CF81C2F1EF31D061E9C249C248C
:10012000AF24AF24A524AF24AF24AF249C249C2467
:10013000AA24AF24AF24AA2435002B003900E10003
:10014000004100001E00140004001D00E3004D00EB
:100150001F001A0016001B00E104E2002000080046
:100160000700060050002C002100150009001900AE
:100170004F004A00220017000A000500000001009D
:1001800050004C0000002900000001004F002A0030
:10019000000029000000010023001C000B001100DA
:1001A00000000100240018000D00100052004B0058
:1001B00025000C000E003600510028002600120019
:1001C0000F0037001A00E600270013003300380044
:1001D00031004E002E002F003400E50001510000D8
:1001E0002900010001000100010000003A001E0288
:1001F000200222022E000E5D3B001F02210223027C
:100200000100C95C3C002F0226022F000100CA5CDD
:100210003D0030022702300001000D5D3E0031023A
:10022000350035020000C35C010001000000010040
:1002300000000C5D01000100000001000000C25C34
:100240003F0052005100240200000B5D40002400DA
:1002500021001E00010001004100250022001F00B6
:100260003700C55C42002600230020002700C65C42
:10027000430025022E0231002E00010044004500FB
:100280000100010001000000010001000100010067
:100290000100000001000100010001000100010057
:1002A00001000100F2000100010001000100F00066
:1002B000F1000100F400010001000100F300010061
:1002C000F500010001000100010001000000010033
:1002D0000100010000000100000001000100010018
:1002E0000000010000000100010001000100010008
:1002F000000001000100010001000100A90001004F
:10030000010001000100AC00AA00B60001000100DC
:100310000100AB00A8000100010001000100010084
:1003200001000100005C0100AE00010001000000BE
:1003300000010101010101010101020202020202A8
:10034000020202030303030303030304040404047B
:100350000404050505050506060606060707070742
:100360000708080808090909090A0A0A0B0B0B0CF7
:100370000C0C0D0D0D0E0E0E0F0F0F101011111194
:100380001212131314141515161617171818191915
:100390001A1A1B1B1C1D1D1E1E1F2020212222237A
:1003A0002424252626272829292A2B2C2D2D2E2FBB
:1003B00030313232333435363738393A3B3C3D3ED2
:1003C0003F404142434445464748494A4C4D4E4FC1
:1003D00050515354555658595A5B5D5E5F61626483
:1003E000656668696B6C6D6F7072737577787A7B10
:1003F0007D7E8082838587888A8C8E8F9193959667
:10040000989A9C9EA0A2A3A5A7A9ABADAFB1B3B586
:10041000B7BABCBEC0C2C4C6C9CBCDCFD1D4D6D862
:10042000DBDDDFE2E4E7E9EBEEF0F3F5F8FAFDFF00
:1004300000047F3F1F643214643214783C1E1E1483
:100440000A0505010902A10185020901A1000509AA
:1004500019012905150025019505750181029501F0
:10046000750381010501093009311581257F950248
:100470007508810609381581257F95017508810663
:10048000050C0A38021581257F950175088106C083
:10049000C005010980A10185031A81002A83001685
:1004A0000100260300950175108100C0050C0901AB
:1004B000A10185041A01002A9C02160100269C0253
:1004C000950175108100C005010906A1018505058A
:1004D0000719E029E7150025019508750181020536
:1004E00007190029EF1500250195F0750181020516
:1004F000081901290595057501910295017503916A
:1005000001C005010906A101050719E029E7150049
:10051000250195087501810295017508810105077E
:10052000190029FF150026FF0095067508810005B2
:100530000819012905950575019102950175039129
:1005400001C009023B00020100A0FA0904000001F9
:10055000030101000921110100012240000705816A
:100560000308000A09040100010300000009211129
:1005700001000122C0000705820320000A120110B9
:100580000100000008EDFE07130100010203010451
:10059000033000000016034500720067006F00641E
:1005A000006F007800200045005A00000008035A40
:1005B0000053004100000004030904FFAA7F5540D6
:1005C0002223252628292A2C2D2F30323335363860
:1005D0003A3B3D3E4042434547494A4C4E505153B9
:1005E0005557595A5C5E6062646668696B6D6F71DD
:1005F000737577797B7D7F81838587898A8C8E90DF
:10060000929496989A9C9E9FA1A3A5A7A8AAACAEE7
:10061000AFB1B3B4B6B8B9BBBCBEBFC1C2C3C5C627
:10062000C7C9CACBCCCDCED0D1D2D2D3D4D5D6D7D0
:10063000D7D8D9D9DADADBDBDBDCDCDCDCDCDDDD0E
:10064000DDDDDCDCDCDCDCDBDBDBDADAD9D9D8D7FE
:10065000D7D6D5D4D3D2D2D1D0CECDCCCBCAC9C7A0
:10066000C6C5C3C2C1BFBEBCBBB9B8B6B4B3B1AFD7
:10067000AEACAAA8A7A5A3A19F9E9C9A9896949277
:10068000908E8C8A89878583817F7D7B797775734E
:10069000716F6D6B6968666462605E5C5A5957552C
:1006A0005351504E4C4A4947454342403E3D3B3AE8
:1006B0003836353332302F2D2C2A2928262523226F
:1006C00011241FBECFEFDAE0DEBFCDBF12E0A0E005
:1006D000B1E0ECECF4E502C005900D92AE31B1074B
:1006E000D9F723E0AEE1B2E001C01D92A43AB2070F
:1006F000E1F70E9445130C94642A0C9400004F9279
:100700005F926F927F929F92AF92BF92CF92DF9251
:10071000EF92FF920F931F93CF93DF9300D000D0FF
:100720001F92CDB7DEB7FC010081F18083819481F7
:10073000892B39F01FEFF11206C091E00F3F19F439
:1007400003C091E001C090E090FDAAC76F0185E071
:10075000DE01119601900D928A95E1F7F601228152
:1007600089819A81222349F00E94311A182F682F1B
:1007700089819A810E94AB1A03C00E947E1A182FA9
:1007800024E5129FF001112436E0F39EE00DF11DE7
:100790001124E00FF11DEE0FFF1FE85CFE4F0591E5
:1007A000149109308DE5180709F042C0F6018281E5
:1007B000882309F4D2C090912D0281E0890F8770BF
:1007C000987F853020F4892B80932D0202C090936E
:1007D0002D0280912D028770FFEF8F9FC0011124A1
:1007E00095958795959587959927909389008093FE
:1007F000880090938B0080938A0090938D00809363
:100800008C0040912D0250912E0260912F02709128
:1008100030028FE090E00E94CC28609142027091FB
:10082000430280914402909145020E94A00F95C01E
:100830000D302DE5120709F444C058F4F601828109
:100840000B30FDE51F0761F10C302DE5120761F15A
:1008500084C00F303DE5130749F008F456C000315D
:100860009DE5190709F079C02DE201C022E241E0BF
:1008700061EEC6010F900F900F900F900F90DF91D7
:10088000CF911F910F91FF90EF90DF90CF90BF908D
:10089000AF909F907F906F905F904F900C949823B3
:1008A000882309F4FDC640C0882309F4F9C60E94D4
:1008B000120D81E00E940F0D21E04FEF6FEF8CEAE7
:1008C0000EC0F6018281882309F4EAC60E94120D47
:1008D00081E00E940F0D21E040E86FEF86E50F9068
:1008E0000F900F900F900F90DF91CF911F910F916C
:1008F000FF90EF90DF90CF90BF90AF909F907F9050
:100900006F905F904F900C94FC22F60182818823B7
:1009100009F4C6C60E94120D81E00E940F0D21E06D
:100920004FEF6FEF8BE1DBCF81E001C088E10F90EB
:100930000F900F900F900F90DF91CF911F910F911B
:10094000FF90EF90DF90CF90BF90AF909F907F90FF
:100950006F905F904F900C940F0DF6018281882369
:1009600019F1033EFCE51F07C1F050F4013E3CE5E0
:10097000130781F0023E8CE51807B1F481E010C046
:10098000043E9CE5190759F0053EECE51E0761F4AD
:1009900084E006C01092290205C082E001C083E015
:1009A000809329020E94EC0D17FF71C0F60182812D
:1009B000882309F46CC080910A0380931E02109270
:1009C0000A0380912902813071F048F08230C1F031
:1009D0008430E1F486EE0E94502788E115C082EE53
:1009E0000E94632713C083E00E94CA2688E10E9408
:1009F000632788E10E94E92683E00E94BF2606C0A3
:100A000082EE0E94632787E50E9450278FE39CE9CE
:100A10000197F1F700C000005801E894B7F82CE006
:100A2000E22EF12CC5010E2C02C0969587950A94F2
:100A3000E2F7282F2F7041F0822F90E02A3010F437
:100A40004D9604C0069702C087E290E00E945027AE
:100A500094E0E91AF108ECEFEE16EFEFFE0611F75D
:100A600080912902813039F040F0823031F08430B9
:100A700051F488E206C08CE204C082EE0E94E926AE
:100A800002C00E94502780911E0280930A03033FF8
:100A9000FCE51F0701F178F4083D3CE51307C1F0C0
:100AA000093D8CE5180719F1073D9CE5190719F573
:100AB00026E241EEDDCE053FECE51E07A1F078F021
:100AC000063F2CE51207B9F427E245EE66EED1CEDB
:100AD00027E245EE0EC026E241EE60EECACE27E2E6
:100AE00045EE64EEC6CE26E241EE62EEC2CE28E2CC
:100AF00041E065EEBECEF6019281992309F44CC126
:100B000010921F020230FCE51F0708F42FC10631C6
:100B10002CE5120738F098012A5F3C452730310553
:100B200008F024C10E9460199093400280933F0214
:100B30000F303CE5130709F4CFC008F042C008307D
:100B40009CE5190709F4A8C0F0F40430FCE51F0780
:100B500009F490C068F402303CE5130709F486C03C
:100B600003301C4509F0DFC080913F028260D9C08C
:100B700006309CE5190709F487C008F089C0809108
:100B80003F028860CEC00B30FCE51F0709F495C01A
:100B900068F409303CE5130709F482C00A301C45AB
:100BA00009F0C1C080913F02886080C00D309CE593
:100BB000190709F486C008F087C080913F028D7F35
:100BC000B0C00A3FFCE51F0709F457C050F50231D9
:100BD0003CE5130709F488C068F400319CE5190767
:100BE00009F47EC001311C4509F09DC080913F028F
:100BF0008F7B97C00431FCE51F0709F487C008F418
:100C000079C005311C4509F08EC080913F0282FBFE
:100C1000222720F991E0922790FB82F990FB83F93B
:100C200080C00D3F8CE5180709F452C058F40B3F03
:100C3000ECE51E0729F10C3F1C4509F074C08091BA
:100C4000400260C00F3F2CE5120709F458C080F144
:100C500001151D4509F067C080914002982F9095BD
:100C600091708E7F892B90FB81F94DC080913F025E
:100C7000816057C080913F0219C0809140021BC023
:100C80008091400282603FC080913F02806149C0F4
:100C900080913F02806245C080913F02806441C0E4
:100CA0000E94AA2680913F0280683BC0846039C0C0
:100CB000809140028260816026C080913F028E7FD9
:100CC00030C080913F0219C080913F02877F29C0C8
:100CD000809140028D7F17C080913F028F7E21C09E
:100CE00080913F028F7D1DC00E94AA2680913F0205
:100CF0008F7717C080913F02877F8B7F12C08091D2
:100D000040028D7F8E7F809340020DC00E94AA26F4
:100D100080913F0287FB222720F991E0922790FBE8
:100D200087F980933F0260913F021091400284E076
:100D300090E00E94BA28612F81E290E00E94BA28D8
:100D40000F900F900F900F900F90DF91CF911F9108
:100D50000F91FF90EF90DF90CF90BF90AF909F905A
:100D60007F906F905F904F900C94AA2680910A0319
:100D70000631FCE51F07A1F58A7A91E009F490E0BD
:100D800090932002882311F065E301C069E288E7AF
:100D900092E00E942B190EC006311C4509F03FC19C
:100DA00080912002882309F479C465E388E792E002
:100DB0000E9403190F900F900F900F900F90DF91EA
:100DC000CF911F910F91FF90EF90DF90CF90BF9048
:100DD000AF909F907F906F905F904F900C94EB1925
:100DE0008272F801E25CFC45E431F10508F0BCC018
:100DF000EA5AFF4F0C9424298091160380FF2EC0DD
:100E00008E7F809316036091160370911703809173
:100E10001803909119030E94A00C10925E029FEF9C
:100E2000E0E7F2E09150E040F040E1F700C0000060
:100E30000F900F900F900F900F90DF91CF911F9117
:100E40000F91FF90EF90DF90CF90BF90AF909F9069
:100E50007F906F905F904F900C94FE100F900F90CA
:100E60000F900F900F90DF91CF911F910F91FF90F6
:100E7000EF90DF90CF90BF90AF909F907F906F905A
:100E80005F904F900C94120D4AE15DE063E27DE0CB
:100E90002CC043E25DE06AE17DE027C048ED5BE005
:100EA00061EE7BE022C041EE5BE068ED7BE01DC0BF
:100EB00040EC5BE06CEC7BE018C04CEC5BE060EC81
:100EC0007BE013C048EA5BE064EB7BE00EC044EBE0
:100ED0005BE068EA7BE009C042EB5CE063EC7CE04D
:100EE00004C043EC5CE062EB7CE00F900F900F904D
:100EF0000F900F90DF91CF911F910F91FF90EF9086
:100F0000DF90CF90BF90AF909F907F906F905F9059
:100F10004F900C94A32265E082E00EC068E086E06A
:100F20000BC06EE089E008C064E18FE005C067E1B6
:100F300085E102C062E289E10F900F900F900F905F
:100F40000F90DF91CF911F910F91FF90EF90DF9065
:100F5000CF90BF90AF909F907F906F905F904F9099
:100F60000C94922283E2E3CC01152CE51207D1F018
:100F70000E3D1C4509F053C00F900F900F900F903D
:100F80000F90DF91CF911F910F91FF90EF90DF9025
:100F9000CF90BF90AF909F907F906F905F904F9059
:100FA0000C9471190E94AA268FEF94E3ECE0815013
:100FB0009040E040E1F700C00000F89481E08093A9
:100FC000E00080E28093D8001092C9008FE19EE497
:100FD0000197F1F700C000001DBA109268001CBC18
:100FE00010BE1FBA10927A0010926E0010926F001D
:100FF00010927100109272001092C9001092BC0001
:1010000014B817B81AB81DB810BA1092BC0015B8A9
:1010100018B81BB81EB811BA0C94003F41C3F601B2
:1010200000811181992349F0C8010E94311AF82EDC
:10103000682FC8010E94AB1A04C0C8010E947E1A22
:10104000F82EB8018F2D0E94F20D8C01B82EF601FA
:10105000E580E2949FE0E922F280F110109209030A
:1010600080910703877079F0FF2069F080E2800F9C
:10107000883048F082E00E94081B80910703877047
:10108000AA24A3948111A12C912E92948FE09822EE
:10109000892D90E08C30910508F0CFC2FC01E65913
:1010A000FF4F0C942429812F807F1F70882311F01B
:1010B0001295107FFF20B9F0112309F448C280E295
:1010C000800F883010F0B11006C080910A03182BF1
:1010D00010930A0305C080910903182B109309038C
:1010E0000E94EB1934C2802F0E94E926112309F4D3
:1010F000A4C2005E1095083010F0B11006C08091B7
:101100000A03182310930A0305C0809109031823CA
:10111000109309030E94EB1990C2812F807F1F70EA
:10112000803211F01295107FBB2021F0F1E0BF1644
:10113000E1F028C0FF2081F080910B03EE2051F0F8
:1011400001E0E01207C0182B181709F476C21093BB
:101150000B0373C2812B10C0EE2021F021E0E216B8
:1011600009F46BC20E94E5191FC0FF2041F031E075
:101170003E1508F462C2812F0E94DF265EC2E11094
:101180005CC212C0FF2019F0EE20A9F3E0C1EE20EE
:1011900059F0093309F0EDC18FEF97EEE3E081508C
:1011A0009040E040E1F7E3C1812F0E94D42645C280
:1011B000812F86958695837019F0813059F03DC254
:1011C000FF2019F0C801937002C080E090E00E94F7
:1011D000702239C2FF2019F0C801937002C080E06C
:1011E00090E00E945A222FC2FF20F9F0053F51F0F3
:1011F000063F71F0043FA9F48091210290912202F0
:1012000081600BC08091210290912202826005C012
:101210008091210290912202846090932202809317
:101220002102802F0E9400181EC0053F51F0063F8A
:1012300071F0043FA9F480912102909122028E7FE7
:101240000BC080912102909122028D7F05C0809178
:101250002102909122028B7F90932202809321029F
:10126000802F0E9436170E94C418EDC1812F837011
:1012700009F069C0F110E5C1902F9295969597708D
:10128000990F990F802F8F70482E512C612C712C43
:10129000092E04C0440C551C661C771C0A94D2F716
:1012A00004FF12C04FE050E060E070E004C0440F63
:1012B000551F661F771F9A95D2F7DB01CA018095EB
:1012C0009095A095B09503C080E090E0DC01169564
:1012D0001695412F4370423019F1C8F400910C0368
:1012E00010910D0320910E0330910F03413059F0FE
:1012F00084299529A629B729BC01CD016023712332
:10130000822393230AC0402A512A622A732ABC01ED
:10131000CD0164297529862997290E94421B91C114
:1013200084299529A629B72900910C0310910D0352
:1013300020910E0330910F03BC01CD01602771276E
:1013400082279327EACFFF2019F0812F817001C0F7
:101350008695882309F475C1902F9295969597707C
:10136000990F990F802F8F70482E512C612C712C62
:10137000092E04C0440C551C661C771C0A94D2F735
:1013800004FF12C04FE050E060E070E004C0440F82
:10139000551F661F771F9A95D2F7DB01CA0180950A
:1013A0009095A095B09503C080E090E0DC01169583
:1013B0001695412F43704230D9F068F500914202F2
:1013C000109143022091440230914502413059F07E
:1013D00084299529A629B729BC01CD016023712351
:1013E000822393231EC0402A512A622A732A13C0E3
:1013F00084299529A629B729009142021091430218
:101400002091440230914502BC01CD016027712733
:101410008227932706C0BC01CD016429752986293E
:1014200097290E94D71A0DC11F70FF2039F0812F14
:101430000E94211B802F0E94DF2603C1802F0E9463
:10144000D426812F0E94E31AFCC0802FF2EFBF1632
:1014500009F43EC0FB1538F020EFB21661F031EF11
:10146000B31689F16FC093EFB916C9F1E4EFBE1658
:1014700009F44CC067C0FF2009F1E110DEC01F7104
:1014800081E090E0A0E0B0E0AC01BD0104C0440FF9
:10149000551F661F771F1A95D2F7809142029091CF
:1014A0004302A0914402B09145028A019B010827A2
:1014B00019272A273B27C901B80125C021E02E158D
:1014C00008F4BBC0DCCFFF2029F0812F8F712CC026
:1014D000FF20D9F3812F8F710E94E31AAEC0FF2045
:1014E00079F01F7181E090E0A0E0B0E0BC01CD0197
:1014F00004C0660F771F881F991F1A95D2F703C083
:1015000060E070E0CB010E94D71A97C0FF2079F00D
:101510001F71812F0E94211B38E0139FC0011124ED
:10152000836080930703812F0E94211B86C081E086
:101530000E94081B81E08E1508F07FC082E00E94A7
:10154000081B7BC0FF2039F0EE2009F4BECF802FAE
:101550000E94632772C0EE2009F4BCCF893349F49E
:101560009FEFE7EEF3E09150E040F040E1F700C07C
:101570000000802F0E94E92660C012EFB116E1F052
:101580001B1538F020EFB21669F031EFB31611F1E8
:101590002BC084EFB816C9F0B81660F095EFB916F5
:1015A00071F022C0FF2009F44EC090919F0381E0AA
:1015B000892708C081E0F826F0929F0344C0F1100B
:1015C00042C081E080939F033EC0F1103CC0109266
:1015D0009F0339C0FF2029F080919E03882329F3BF
:1015E00029C0EE2011F32FC080919E03EE20C1F0A0
:1015F000882341F090919F0381E0892780939F0386
:1016000010929E03802FFF2019F00E9463271BC0B9
:101610000E94E92686E0F60111928A95E9F713C047
:10162000882389F0F1100FC090919F0381E08927F2
:1016300080939F0310929E0306C088EF890D84302B
:1016400010F40E948622AA2059F18091070380FDA0
:1016500027C0F60112828595859585950E94211BEC
:10166000C6010E947F038091070385958595859526
:101670000F900F900F900F900F90DF91CF911F91CF
:101680000F91FF90EF90DF90CF90BF90AF909F9021
:101690007F906F905F904F900C94E31A69E286CB35
:1016A0000F900F900F900F900F90DF91CF911F919F
:1016B0000F91FF90EF90DF90CF90BF90AF909F90F1
:1016C0007F906F905F904F90089590913F0292FFAE
:1016D0000DC0282F2871283019F4877F846006C038
:1016E000282F2471243011F48B7F886093FF0DC064
:1016F000282F2871283119F4877E846106C0282F8D
:101700002471243111F48B7E88612091400220FFE6
:101710000DC0382F3871383019F4877F816006C0CA
:10172000382F3171313011F48E7F886021FF0DC068
:10173000282F2871283119F4877E816106C0282F4F
:101740002171213111F48E7E886194FD877E089588
:10175000E6E1F3E043812CE0421B08F440E021E0A5
:10176000628181810C94FC22E6E1F3E043812CE06C
:10177000420F08F44FEF21E0628181810C94FC223A
:10178000E6E1F3E062812FEF621B08F460E021E004
:10179000438181810C94FC22E6E1F3E062812FEF2A
:1017A000620F08F46FEF21E0438181810C94FC22E9
:1017B000E6E1F3E0818121E0438162818C500C9469
:1017C000FC22E6E1F3E0818121E043816281845FD4
:1017D0000C94FC22CF93E82F873080F5809106018E
:1017E00090910701892B09F047C0CE2F64E670E085
:1017F00080E40E94F6279093070180930601892BCD
:10180000D1F464E670E082E10E944D2890930701D4
:1018100080930601892B79F481E090E001C0880F64
:10182000CA95EAF764E670E080950E944D2890938F
:10183000070180930601CF910C94A22890E0FC014F
:101840003797E730F105C0F4EA58FF4F0C9424298C
:10185000209A289811C0219A29980EC0229A2A9875
:101860000BC0239A2B9808C0529A5A9805C0539AD5
:101870005B9802C03E9A4698CF910895CF938730E7
:1018800008F03FC08091060190910701892B09F073
:1018900041C064E670E080E40E94F627909307015F
:1018A00080930601892B11F0C0E027C064E670E048
:1018B00083E10E944D289093070180930601892BB4
:1018C00099F764E670E081E40E94F627909307019F
:1018D00080930601892B41F784E690E00E947D28E1
:1018E00097FF05C09093070180930601DDCFC82FB5
:1018F000C09510920701109206010E94A2288C2F19
:101900000AC09FB18FB1807F869586959370892B91
:10191000809501C080E0CF91089580911603282F13
:10192000269530E02115310519F48170826005C0DB
:101930002532310524F08170886480931603089560
:10194000CF92DF92EF92FF926B017C010E948D0C8F
:10195000B701A60188E090E0FF90EF90DF90CF9074
:101960000C94CC2880911A03882319F0815080931D
:101970001A036091160370911703809118039091D8
:1019800019030C94A00C80911A03833018F48F5F14
:1019900080931A03609116037091170380911803C6
:1019A000909119030C94A00C9091160390FF36C0EF
:1019B0009170811102C0926006C0853210F0986467
:1019C00002C0880F982B90931603662351F0609104
:1019D00016037091170380911803909119030E94C8
:1019E000A00C60911603669570E04BE050E083E137
:1019F00091E00E94572A892B19F010925E0202C0D2
:101A00000E940C2481E080935A0220E04091190347
:101A100060911803809117030C94FC22089561E0F3
:101A20000C94D40CE6E1F3E080818160808386959C
:101A30000C940F0D809116038695815009F484E271
:101A400061E00C94D40C8091160386958F5F8532EB
:101A500008F081E061E00C94D40CE6E1F3E083E06F
:101A6000808311828FEF82838383148260817181EE
:101A7000828193810C94A00CBF92CF92DF92EF925F
:101A8000FF920F931F93CF93DF93E82EF62EE90179
:101A9000E42FF0E0611106C0E05DFC4F8491B82EA8
:101AA000E82F71C0262F30E0E05DFC4FE491FE2F5F
:101AB000CE2ED12C46E0849FC00111240FEF10E000
:101AC000B8010E94FC284BEA4603C001479F900DD5
:101AD00011248E0D911D8E0D911D982F990F890F38
:101AE000D801A21BB30BAC9DA001AD9D500DBC9DB8
:101AF000500D1124B52EF89ED0011124AB2FBB2719
:101B00007801EA1AFB0AEC9CD001ED9CB00DFC9C1C
:101B1000B00D11247801E81AF108E29EC001E39E9D
:101B2000900DF29E900D1124892F9927081B190BF7
:101B30000C9D90010D9D300D1C9D300D1124832FA7
:101B40006230710591F048F461157105E1F0613082
:101B50007105B9F48E2FEB2F16C06430710569F052
:101B600040F06630710579F00CC08E2FE52FB32E52
:101B70000AC0E52FBF2E8B2F06C0852FBE2EE32F68
:101B800002C0852FBB2EE9838883BA821B82DF9136
:101B9000CF911F910F91FF90EF90DF90CF90BF906A
:101BA0000895CF93DF9300D000D0CDB7DEB79091EA
:101BB000160390FF0AC09E012F5F3F4F0E943C0D0D
:101BC0004B8169818A810E94A9220F900F900F900A
:101BD0000F90DF91CF910895609129028CE090E001
:101BE0000C94BA28CF93DF9324E5829FC00111247F
:101BF000FC0146E0749FE00DF11D1124E60FF11D7C
:101C0000EE0FFF1FE85CFE4FC591D491CE01C238A4
:101C1000D10569F1B0F4C133D10509F475C048F4B8
:101C2000C932D10509F469C0CA32D10509F473C0BB
:101C300085C0C533D10509F459C0C933D105B9F000
:101C40007DC0C33ED10571F138F4C03ED105B1F07D
:101C5000C23ED10511F172C0C63ED105B9F1C73EF1
:101C6000D105C9F1C43ED10509F068C024C0209156
:101C70003F0220FD5DC021FD5BC060C020913F029E
:101C800020FD50C02091400220FF57C180913F02AB
:101C900084FD51C183EE90E050C120913F0222FFAC
:101CA0004CC1F4CF80913F0282FD3FC08091400241
:101CB00080FD3EC0EBCF2091400221FF3EC18091CC
:101CC0003F0284FD38C187EE90E037C120913F028A
:101CD00023FF33C1F4CF80913F0283FD2CC080915C
:101CE000400281FFECCF84EE90E027C120913F02BB
:101CF00025FF23C189E290E020C120913F0225FF0A
:101D00001CC185E390E019C120913F0226FF15C157
:101D10008AE290E012C120913F0226FF0EC181E3CA
:101D200090E00BC189E390E008C182EE90E005C12C
:101D300080EE90E002C186EE90E0FFC0C11552E552
:101D4000D50708F075C0C11521E5D20728F09C2FF2
:101D50008827816F906AF1C0C83ED10570F5C03EFA
:101D6000D10508F0EAC0C83AD105B8F4C53AD105A2
:101D700050F08C2F855AC82FD0E0C351DE4F888198
:101D800090E09064DAC0C130D10509F4D6C008F4FF
:101D9000D2C0249708F4CFC0D0C0CF3BD10508F003
:101DA000CAC08C2F885AC82FD0E0CC0FDD1FC0517D
:101DB000DE4F888199819464C0C0C11540E2D40788
:101DC00060F4C11551E0D50708F0B7C0C03FD10598
:101DD00008F4B1C0CE019065B0C0C11580E4D80749
:101DE00008F4A9C0C11520E5D20720F4CE019F70E8
:101DF000906AA3C0CE01F4E096958795FA95E1F735
:101E0000282F23703C2F337081E090E002C0880FB0
:101E1000991F3A95E2F79C68922B2C2F2F702695EC
:101E2000269550E2259F90011124822B932B85C08B
:101E3000C11546E5D40708F03FC0C11555E5D507E3
:101E400048F08C2F0E94650B8F7190E0982F8827A7
:101E5000906273C0C11584E5D80728F09C2F8827AD
:101E6000846F906A6AC09E01237033279C2F9695D9
:101E70009695C115D34580F441E050E002C0440F6F
:101E8000551F2A95E2F780E2989F90011124CA011C
:101E9000822B932B9C6851C041E050E002C0440F5C
:101EA000551F2A95E2F780E2989F90011124CA01FC
:101EB000822B932B9A6841C0C1155AE5D50778F556
:101EC000C11589E5D80710F18C2F8F700E94650B22
:101ED0009E0194E0369527959A95E1F72F7030E0B2
:101EE000322F22273069A901482B0EC09056811548
:101EF000904208F58D2F8F710E94650B9E0133274C
:101F000030628F71A901582BCA0117C0C11528E58D
:101F1000D20788F09C2F8827806F906A0EC0C11569
:101F20004BE5D40740F0CE01C1155CE5D507F0F6CE
:101F30009927906602C080E090E0DF91CF910895EC
:101F4000CF92DF92EF92FF920F931F936C01EE24DA
:101F5000FF24C114D104E104F10411F0E0E103C055
:101F60006B017C01E0E033272F2D1E2D0D2D011577
:101F700011052105310519F0E85F68017901970124
:101F80008601F4E03695279517950795FA95D1F7D0
:101F9000011511052105310519F0EC5F6801790182
:101FA0009701860152E036952795179507955A9522
:101FB000D1F7011511052105310519F0EE5F680112
:101FC0007901970186013695279517950795012B7D
:101FD000022B032B09F0EF5F56985E9825982D98F9
:101FE00026982E9827982F980E2F10E0F8013197F9
:101FF000E730F105A8F4E358FF4F0C942429259A03
:102000002D9A0EC0259A2D9A269A2E9A09C0259AA5
:102010002D9A04C0259A2D9A269A2E9A279A2F9A9D
:102020001F910F91FF90EF90DF90CF90089580E285
:1020300090E0909307018093060180912602811120
:102040000EC00E94F02781E0809326022FEF83EDDF
:1020500090E3215080409040E1F700C0000064E62A
:1020600070E080E40E94F6279093070180930601B8
:10207000892B09F04EC064E670E080E00E944D2894
:102080009093070180930601892B09F042C064E612
:1020900070E080E00E944D28909307018093060134
:1020A000892BB9F564E670E08FE30E944D28909388
:1020B000070180930601892B61F50E94A22864E63E
:1020C00070E080E40E94F627909307018093060158
:1020D000892BF9F464E670E08CE00E944D2890931F
:1020E000070180930601892BA1F464E670E080E08B
:1020F0000E944D289093070180930601892B49F493
:1021000064E670E08FE30E944D289093070180936E
:1021100006010E94A228809106010895CF93DF93C3
:1021200056985E9825982D9826982E9827982F983F
:10213000C8E8D0E08FEF90E099838883AAE8B0E008
:1021400011969C938E93ECE8F0E091838083259A1E
:102150002D9A2FEF80E792E0215080409040E1F7E8
:1021600000C00000269A2E9A2FEF80E792E02150BF
:1021700080409040E1F700C00000279A2F9A2FEF8F
:1021800080E792E0215080409040E1F700C00000DD
:1021900025982D982FEF80E792E0215080409040C5
:1021A000E1F700C0000026982E982FEF80E792E01C
:1021B000215080409040E1F700C0000027982F9800
:1021C00080912D0287702FEF829FC0011124959579
:1021D00087959595879599279983888311969C93E0
:1021E0008E939183808356985E9825982D98269893
:1021F0002E9827982F98DF91CF910895EF92FF9214
:102200000F931F93CF93DF938091160380FF08C035
:102210000EE413E08AE8E82E83E0F82EF8010CC003
:10222000EEE4F3E01182108212821382349683E08E
:10223000EA38F807B9F7ECCF928120813181892FF4
:10224000291708F4822F381708F4832F8383381B4B
:102250003183281B2083981B92833496EE16FF0649
:1022600059F70E94F02764E670E084E80E94F627A0
:10227000CEE4D3E064E670E088810E944D2864E6F5
:1022800070E089810E944D2864E670E08A810E9496
:102290004D2864E670E08B810E944D282496EC1650
:1022A000FD0641F70E94A228579A8BB18F779BB108
:1022B00090682FB7F894E016F10699F0F801319183
:1022C0008F0148E09BB9000000C037FF8BB9330F86
:1022D000000000C000C000C08BB900C04A9591F753
:1022E000EACF2FBF8FE391E00197F1F700C0000024
:1022F000DF91CF911F910F91FF90EF90089584B1DE
:10230000807F84B985B1807F85B98AB1837F8AB99E
:102310008BB1837F8BB93E984698089580B38C70BB
:1023200080BB81B3836F81BB0895BF92CF92DF9250
:10233000EF92FF920F931F93CF93DF93809106014B
:1023400090910701892B91F0809125028F5F8093F6
:10235000250281110BC00E94171090E09093070195
:1023600080930601892B11F40E948E1091E3E92ECF
:1023700092E0F92E8701C0E0B12C87E0C82ECC0E88
:102380008C2F0E94EA0B8C2D0E94EA0B8C2F0E944E
:102390003E0CF8019081891721F08083DD24D394CD
:1023A00001C0D12C8C2D0E943E0CF8019781891719
:1023B00019F0878381E001C080E0D82ABD280E94FF
:1023C0007F11CF5F0F5F1F4FC730B9F60E94B8185B
:1023D0006AEF70E00E94FC289C01682F8091240223
:1023E0008823E9F110922402E0912702F09128025B
:1023F000DF011E9690E07BEF0AEF10E080818B3FBB
:10240000A9F0482F50E0681728F06901C41AD50ACE
:10241000A60106C0E801C41BD50BAE01420F531F35
:102420004E31510514F0708301C091E03196EA17E6
:10243000FB0721F790932402B11002C0911111C043
:1024400010922302E0912702F09128029091240239
:10245000A9E4B2E0AF01425F5F4F80E007C0B11076
:10246000EFCF809123028111EBCF17C0E7012991B3
:102470007E013C91321741F030813B3F21F4608373
:102480002C9391E001C081E031961196E417F50795
:1024900069F790932402809323028B2DDF91CF91D3
:1024A0001F910F91FF90EF90DF90CF90BF90089514
:1024B0002091E4003091E50095E64091EC00842FF6
:1024C000817040FF23C08091E80080FD1DC0809195
:1024D0004103882399F0853099F08091EB0085FDC8
:1024E00011C04091E4005091E5002417350729F30D
:1024F000915011F09A01E1CF84E0089582E00895AF
:1025000083E0089581E0089580E008954091E80017
:1025100042FFDDCF08958091430387FF11C0809172
:10252000E80082FD05C0809141038111F8CF11C000
:102530008091E8008B770BC080914103882349F09C
:102540008091E80080FFF8CF8091E8008E7780933B
:10255000E8000895982F973068F59093E900981750
:1025600039F07091EC002091ED005091F00003C023
:10257000242F762F50E021FD02C09F5FECCF3091D9
:10258000EB003E7F3093EB003091ED003D7F3093C8
:10259000ED003091EB0031603093EB007093EC0074
:1025A0002093ED005093F0002091EE0027FDE5CF41
:1025B00080E008958F708093E90081E00895209174
:1025C000490330914A032617370748F06115710512
:1025D00039F42091E8002E772093E80001C0B9017A
:1025E000FC0120E06115710579F180914103882398
:1025F000F1F18530F1F18091E80083FD3CC08091DC
:10260000E80082FD2EC08091E80080FFEBCF209192
:10261000F3008091F20090E0922B6115710551F06A
:102620008830910538F421912093F10061507109AF
:102630000196F3CF21E0089709F020E08091E800AF
:102640008E778093E800CECF2111CFCF0AC0809142
:102650004103882361F0853061F08091E80083FDBB
:102660000AC08091E80082FFF2CF80E0089582E006
:10267000089583E0089581E00895809141038430B6
:1026800011F081E0089582E00895CF93DF93CDB7F4
:10269000DEB72A970FB6F894DEBF0FBECDBF84B762
:1026A000877F84BF0FB6F894A895809160008861F9
:1026B00080936000109260000FBE90E080E80FB63B
:1026C000F89480936100909361000FBE85B7806895
:1026D00085BF85B7806885BF0E949B1E0E94BA1E79
:1026E0008091E20084608093E200789480914103BD
:1026F0008823A1F01091E9001F709091EC00892FC0
:10270000817090FD80E8182B1092E9008091E8001C
:1027100083FD0E94821B1F701093E90082E084BD3C
:1027200093E095BD9AEF97BD80936E000E941710BD
:1027300090E090930701809306010E947F110E9410
:102740008E11A1E3B2E017E5E12E12E0F12EE9E4EB
:10275000F2E011921D9222E0E735F207D1F78EE008
:1027600090E00E9436298093270290932802FC0172
:102770000E962BEF2193E817F907E1F780E090E040
:102780000E94B4288F3E9E4F11F00E9471198CE078
:1027900090E00E94A62890E0A0E0B0E0809329029B
:1027A00090932A02A0932B02B0932C0289EA809383
:1027B000800089E08093810024982C983F988AB10A
:1027C0008F7C8AB96E98479A8BB180638BB9769A61
:1027D0008FE090E00E94AE2860932D0270932E024D
:1027E00080932F029093300267704FEF649FB00187
:1027F000112475956795759567957727709389006E
:102800006093880070938B0060938A0070938D00B2
:1028100060938C000E948E1080E090E00E94B428AB
:102820008F3E9E4F11F00E94711982E090E00E944D
:10283000A628809369020E946019909340028093B9
:102840003F0283E090E00E94A628682F70E080E0BD
:1028500090E00E94421B80914102811136C080E0CD
:1028600090E00E94B4288F3E9E4F21F00E94711983
:102870000E942D0D88E090E00E94AE286093160320
:102880007093170380931803909319036E7F71F46C
:102890000E942D0D88E090E00E94AE286093160300
:1028A0007093170380931803909319030E948D0C63
:1028B00010925E028091160380FF04C060E086954E
:1028C0000E94D40C81E08093410260914202709199
:1028D000430280914402909145020E94A00F88E03B
:1028E00091E09093470280934602F0E3CF2EF4E00C
:1028F000DF2E80914103853009F067C0809141034C
:10290000843009F441C01092480220E488E190E04C
:102910000FB6F894A895809360000FBE20936000D6
:1029200010925E0280911C03811117C081E0809398
:102930001C0380911603982F917090931B038E7F38
:10294000809316032FEF30E742E0215030404040A3
:10295000E1F700C000000E94FE1083B7817F846011
:1029600083BF83B7816083BF7894889583B78E7F58
:1029700083BF0FB6F894A89580916000886180931A
:102980006000109260000FBE80914003882309F41C
:10299000B0CF0E94171090E090930701809306013A
:1029A0000E947F110E948E11E9E4F2E01192EE166E
:1029B000FF06E1F70E949511E9E4F2E081918111AF
:1029C0007BC1EE16FF06D1F794CF0E949511EAE67F
:1029D000F2E0A9E4B2E000E010E0302F2D919191F7
:1029E000922721F180E0BB24B394492F4B21D1F0F1
:1029F00089833A832B2181E009F480E08B830E9454
:102A0000B8188160782F9D838C8349815A816B81AE
:102A10008D810E947F21F801E659FD4F8081B82603
:102A2000B08219C08F5FBB0C8630F9F60F5F1F4F65
:102A30000E30110591F68FEF8E838F8318860E94DA
:102A4000B8188160782F9A8789874E815F81688561
:102A50008A850E947F2180915E02882309F499C0B3
:102A600080915D02E0911603E695E81BE093590220
:102A7000823059F4F0E0E25CFB4FE4910E2F10E05D
:102A8000EBE6AE2EE1E2BE2E58C0863059F4F0E0FF
:102A9000E55CFB4FE4910E2F10E07BE5A72E71E281
:102AA000B72E4BC0893061F4E695F0E0E85CFB4F4F
:102AB000E4910E2F10E066E0A62E60E2B62E3DC037
:102AC0008F3061F4E695F0E0EB5CFB4FE4910E2F64
:102AD00010E05DEEA52E50E2B52E2FC0853159F4E1
:102AE000F0E0EE5CFB4FE4910E2F10E04DE9A42ED8
:102AF00040E2B42E22C0883199F0833241F4F601CD
:102B0000059114913BEBA32E32E2B32E16C0843212
:102B100071F404EF11E020E3A22E20E2B22E0DC0EA
:102B200008EE13E09AE6A92E90E2B92E06C000ED59
:102B300017E085E0A82E80E2B82E80915A02882303
:102B400089F010925A020E94B81898012095309589
:102B5000820F931F909358028093570210925C0249
:102B600010925B0280915702909158020E948E1839
:102B70008017910770F0E0915702F09158020E0F04
:102B80001F1F109358020093570287E592E0F5014A
:102B9000099580916602909167020E948E189C01AF
:102BA00090916502992321F02431310508F478C011
:102BB000809161021091620281110BC0111192C0CB
:102BC0002091630221118EC02091640221118AC0DC
:102BD00067C09F3F19F09F5F90936502181624F419
:102BE0000E94DD17809361028091610287FF05C01A
:102BF0000E94DD17819580936102111624F40E94D2
:102C0000DD17809362028091620287FF05C00E94F7
:102C1000DD17819580936202309161023323E1F0E8
:102C2000209162022223C1F045EB3403C00111243C
:102C3000992319F09093610203C081E080936102AF
:102C400035EB2303C0011124992319F090936202FC
:102C500003C081E08093620280916302181624F41D
:102C60000E94BB17809363028091630287FF05C0B7
:102C70000E94BB17819580936302809164021816AD
:102C800024F40E94BB17809364028091640287FF42
:102C900005C00E94BB178195809364020E94C418EE
:102CA0000E94862290916802891709F422CE0E9420
:102CB0008622809368021DCE80E189BD82E189BDB4
:102CC00009B400FEFDCF8091D8008F7D8093D8009D
:102CD0008091E00082608093E0008091E00081FDBF
:102CE000FCCF07CE9F3F09F076CF87CF80911E03A0
:102CF0000895CF93DF9300D01F92CDB7DEB79091A8
:102D00004103943019F589837B836A8382E0809341
:102D1000E9008FEF9091E800815095FD06C095ED98
:102D20009A95F1F700008111F5CF8091E80085FFB9
:102D30000DC040E050E063E070E0CE0101960E94DB
:102D4000561B8091E8008E778093E8000F900F90DB
:102D50000F90DF91CF910895CF93DF93EC010E9404
:102D60003D13823011F0843031F4BE0184E0DF91F4
:102D7000CF910C947916DF91CF910895BC016058E2
:102D8000710983E00C947916CF93DF93EC010E94D4
:102D90003D13823011F08430F9F482E08093E90031
:102DA0008FEF9091E800815095FD06C095ED9A95C2
:102DB000F1F700008111F5CF8091E80085FF0CC08C
:102DC00040E050E066E070E0CE010E94561B80912A
:102DD000E8008E778093E800DF91CF910895CF933C
:102DE000DF93EC010E943D13823011F08430D9F55D
:102DF00080911201882339F080913F0287FF03C040
:102E000060E282E002C068E081E08093E9008FEF39
:102E10009091E800815095FD06C095ED9A95F1F7E7
:102E200000008111F5CF8091E80085FF1CC08091E2
:102E30001201811105C040E050E068E070E003C07D
:102E400070E040E050E0CE010E94561B8091E80007
:102E50008E778093E80080E2FE01AFE1B3E001905D
:102E60000D928A95E1F7DF91CF910895803F39F473
:102E70008091620287FF6CC01092620269C0813F3C
:102E800029F4809162021816BCF362C0909161022D
:102E9000823F29F497FF5CC01092610259C0833FC2
:102EA00019F41916CCF354C0893F41F480916302A0
:102EB00018160CF04DC0109263024AC08A3F29F4E4
:102EC0008091630287FF44C0F6CF8B3F39F4809135
:102ED000640287FF3DC0109264023AC08C3F29F41F
:102EE000809164021816BCF333C0843F21F48091B2
:102EF00060028E7F17C0853F21F4809160028D7F34
:102F000011C0863F21F4809160028B7F0BC0873F08
:102F100021F480916002877F05C0883F31F4809161
:102F200060028F7E8093600213C08D3F21F48091F8
:102F300014038E7F0BC08E3F21F4809114038D7F8C
:102F400005C08F3F29F4809114038B7F8093140375
:102F50008091610281110EC08091620281110AC0CC
:102F600080916302811106C080916402811102C0C8
:102F70001092650208958091140380FD16C081FDB2
:102F800016C082FD18C080916502882391F08832B6
:102F900090F428E0829FC001112468E270E00E9452
:102FA0001029862F672B29F007C082E0089584E05E
:102FB000089581E0089588E008958091140380FDCC
:102FC00017C081FD17C082FD19C08091650288235A
:102FD00099F08C3398F423E2829FC00111246CE3B2
:102FE00070E00E941029862F672B49F481E0089534
:102FF00088E0089581E1089585E0089583E20895C9
:10300000803F21F40E94DD17819504C0813F29F49F
:103010000E94DD17809362020895823F21F40E948E
:10302000DD17819504C0833F29F40E94DD1780934A
:1030300061020895893F19F40E94BB1705C08A3FB9
:1030400031F40E94BB1781958093630208958B3FF2
:1030500021F40E94BB17819504C08C3F29F40E9483
:10306000BB17809364020895843F21F4809160022D
:10307000816017C0853F21F480916002826011C099
:10308000863F21F48091600284600BC0873F21F469
:1030900080916002886005C0883F31F480916002B1
:1030A00080618093600208958D3F21F48091140324
:1030B00081600BC08E3F21F480911403826005C0B3
:1030C0008F3F29F480911403846080931403089542
:1030D00078941F920F920FB60F9211248F939F93A3
:1030E000AF93BF938091100390911103A0911203AD
:1030F000B09113030196A11DB11D8093100390930D
:103100001103A0931203B0931303BF91AF919F914A
:103110008F910F900FBE0F901F901895CF92DF9256
:10312000EF92FF920F931F932FB7F89440911003E3
:103130005091110360911203709113032FBF6A0124
:103140007B01EE24FF248C0120E030E0C016D10684
:10315000E206F30610F4415051099A01281B390B7D
:10316000C9011F910F91FF90EF90DF90CF900895CC
:103170002FB7F8948091100390911103A09112033E
:10318000B09113032FBF0895E0914602F0914702DA
:10319000309749F082E080935F020480F581E02D52
:1031A0008FE592E009950E94B8189093670280938A
:1031B000660208951F920F920FB60F9211248F93FB
:1031C0009F93AF93BF9380914802811113C0809168
:1031D000100390911103A0911203B0911303419633
:1031E000A11DB11D8093100390931103A0931203AE
:1031F000B0931303BF91AF919F918F910F900FBE2A
:103200000F901F901895209112012223C9F0209150
:103210003F0227FF15C0262F2695269526952E318D
:10322000C8F4FC01E20FF11D677081E090E001C07D
:10323000880F6A95EAF780959281892382830895A1
:10324000FC0106962281621301C012823196E817B2
:10325000F907C1F70895209112012223C1F02091AE
:103260003F0227FF14C0262F2695269526952E313E
:1032700030F5FC01E20FF11D677081E090E001C0C4
:10328000880F6A95EAF79281892B82830895FC0161
:1032900032962FEF30E04191641789F02F3F19F4F7
:1032A000411101C0232F3F5F3630A9F72F3F39F07E
:1032B000FC01E20FF11D27FDFA9562830895089540
:1032C000CF9384E090E00E94A628C82F81E290E08E
:1032D0000E94A6282C2F30E0A901582BCA01CF91BB
:1032E00008956FEE7EEF80E090E00E94D82860E0C5
:1032F00082E090E00E94BA2860E083E090E00E94C3
:10330000BA2810920C0310920D0310920E03109223
:103310000F0360E084E090E00E94BA2860E081E260
:1033200090E00E94BA2860E085E090E00E94BA2810
:1033300060E086E090E00E94BA286FEF87E090E0BE
:103340000E94BA2840E050E0BA0188E090E00E9474
:10335000CC2860E08DE090E00E94BA2840E050E088
:10336000BA0188E190E00E94CC2860E087E190E01B
:103370000E94BA2840E050E0BA018CE190E00E943F
:10338000CC2860E080E290E00E94BA2810922D02E2
:1033900010922E0210922F021092300284E080616F
:1033A00080932D0240912D0250912E0260912F02A8
:1033B000709130028FE090E00E94CC2840E050E015
:1033C000BA0183E190E00C94CC2880910B03811129
:1033D00010920B03089590910A0380910903892BA1
:1033E00020910803982F922B9093780280910B03E1
:1033F0008823D9F0892B8093780280911201882349
:1034000031F080913F0287FF02C08EE101C086E06B
:10341000EAE7F2E090E0815028F021912223D9F3ED
:103420009F5FF9CF91110E94E519E0914602F0915A
:1034300047023097A9F080911201882359F08091BA
:103440003F0287FF07C0809178028093790285E070
:10345000809378020280F381E02D88E792E009945E
:103460000895BF92CF92DF92EF92FF920F931F9336
:10347000CF93DF938C01C0904202D0904302E09042
:103480004402F090450280910C0390910D03A091AD
:103490000E03B0910F03C82AD92AEA2AFB2ACFE1EA
:1034A000D0E0D701C6010C2E04C0B695A79597951C
:1034B00087950A94D2F780FD04C0219790F7B12C2C
:1034C00007C0BC2EB8018C2F0E94F20D0197A9F302
:1034D0008B2DDF91CF911F910F91FF90EF90DF9097
:1034E000CF90BF900895CF93DF93EC010E94311AE3
:1034F000BE010E94F20DDF91CF910895292F220F76
:10350000920F990F890F682F669566956695982F8B
:10351000977085E0689FB001112440E050E080E0A2
:10352000FB01E40FF51FE053FD4F208130E0092E31
:1035300002C0369527950A94E2F721703327042EAE
:1035400001C0220F0A94EAF7822B4F5F5F4F45308C
:10355000510531F70895292F220F920F990F890FE6
:10356000E82FE695E695E695877051E001C0550F86
:103570008A95EAF785E0E89FF0011124E053FD4FBA
:1035800020E030E070E04081CB01022E02C0969531
:1035900087950A94E2F78170819584278523842793
:1035A00081932F5F3F4F2530310569F708950E94C1
:1035B000A00F609342027093430280934402909361
:1035C00045020C948F260F931F9341E050E060E07A
:1035D00070E004C0440F551F661F771F8A95D2F70D
:1035E000409550956095709580914202909143026C
:1035F000A0914402B09145028A019B01082319233E
:103600002A233B23C901B8011F910F910C94D71AAB
:10361000209107038095822380930703982F97704A
:1036200079F430E0482F082E000C550B241735078D
:1036300039F08595859585950E94E31A10920703C8
:1036400008950F931F9341E050E060E070E004C0E4
:10365000440F551F661F771F8A95D2F7809142024B
:1036600090914302A0914402B09145028A019B01CE
:10367000082B192B2A2B3B2BC901B8011F910F9145
:103680000C94D71A60930C0370930D0380930E0370
:1036900090930F030C948F268091CF0290919E02FD
:1036A000891719F08F5F8770FBCF0895EF92FF9213
:1036B0000F931F93CF93DF937C018B010E945812CD
:1036C000811119C0E70101151105A1F08091E800F1
:1036D00085FD0AC08091E8008E778093E8000E9403
:1036E0005812882381F307C089918093F10001501B
:1036F0001109E9CF80E0DF91CF911F910F91FF90E9
:10370000EF9008951F93CF93DF93CDB7DEB7AA97BD
:103710000FB6F894DEBF0FBECDBFE3E4F3E08091B7
:10372000F100819323E0EB34F207C9F78091440361
:10373000833009F460C030F4813071F0823009F4D4
:103740009AC0B1C08A3009F486C08B3009F46BC0CE
:10375000893009F0A8C020C080914303813A09F064
:10376000A2C08091E800877F8093E80080914703A2
:1037700090914803892B21F460E28FE193E003C02C
:1037800060E080E090E070E00E94DF128091E8004D
:103790008B778093E80087C080914303813209F0E2
:1037A00082C08091470390914803029708F07BC044
:1037B0008091E800877F8093E8008091E80082FD97
:1037C00005C0809141038111F8CF6DC02091F300B5
:1037D0008091F20090E0922B029729F48091F10001
:1037E0008B7F813021F48091F10080931E038091C2
:1037F000E8008B7754C080914303813A09F053C0AD
:103800008091470390914803892B09F04CC0809127
:10381000E800877F8093E8008091E80080FFFCCF7C
:103820008091120137C0809143038132E1F580918C
:10383000470390914803892BB1F58091E800877F79
:103840008093E8000E948B128091450380931201BF
:103850000E94AA2628C080914303813221F58091DD
:10386000E800877F8093E8000E948B1280914603D6
:1038700080931D0318C080914303813AA1F4809185
:10388000E800877F8093E8008091E80080FFFCCF0C
:1038900080911D038093F1008091E8008E778093E2
:1038A000E8000E948B128091E80083FFD8C18091CC
:1038B000430390914403492F50E04A30510508F0EA
:1038C000CEC1FA01EC57FF4F0C942429803821F027
:1038D000823809F0C4C108C080913F039091400331
:1038E000992389F082600FC0809147038F708730E1
:1038F00008F0B5C18093E9008091EB0085FB882733
:1039000080F91092E9009091E800977F9093E80089
:103910008093F1001092F10071C1282F2D7F09F0E2
:103920009EC1882319F0823061F099C180914503CE
:10393000813009F094C1933009F080E08093400316
:103940002EC08091450381112AC0809147038F705A
:103950002FEF280F263008F082C18093E9002091D4
:10396000EB0020FF1CC0933021F48091EB008062BB
:1039700014C09091EB0090619093EB0021E030E057
:10398000A90102C0440F551F8A95E2F74093EA004F
:103990001092EA008091EB0088608093EB00109217
:1039A000E9008091E800877F2CC1811158C11091F6
:1039B00045031F778091E3008078812B8093E3009B
:1039C0008091E800877F8093E8000E948B128091AD
:1039D000E80080FFFCCF8091E30080688093E300E3
:1039E000111102C082E001C083E08093410337C11E
:1039F0008058823008F033C180914503909146038E
:103A00008C3D53E0950779F583E08A838AE28983C8
:103A10004FB7F894DE01139620E03EE051E2E32F29
:103A2000F0E050935700E49120FF03C0E295EF705F
:103A30003F5FEF708E2F90E0EA3010F0C79601C024
:103A4000C0968D939D932F5F243149F74FBF80918E
:103A5000E800877F8093E8006AE270E0CE0101967B
:103A60000E94DF12BAC04091470350914803292FAA
:103A7000332723303105B1F068F42130310509F4E2
:103A8000FDC02230310509F0EAC08BE390E0E2E4AA
:103A9000F5E050C02132310581F12232310509F4BF
:103AA00039C0DDC0992781309105B9F070F08230BE
:103AB0009105D9F0039709F0D2C0EFE8F5E0E49161
:103AC0008E2F90E0EFE8F5E032C0E7EBF5E0E4910F
:103AD0008E2F90E0E7EBF5E02AC0EDEAF5E0E49107
:103AE0008E2F90E0EDEAF5E022C0E5E9F5E0E49103
:103AF0008E2F90E0E5E9F5E01AC04115510509F473
:103B0000C2C04130510509F0AAC089E090E0EDE65D
:103B1000F5E010C04115510509F4BAC04130510516
:103B200009F09DC080EC90E0E2E4F4E003C000976F
:103B300009F495C02091E800277F2093E8002091A8
:103B4000490330914A038217930708F49C0140E02F
:103B50002115310589F180914103882309F43DC085
:103B60008530D9F18091E80083FD37C08091E8006D
:103B700082FD2FC08091E80080FFEACF4091F300E2
:103B80008091F20090E0942B2115310559F0883096
:103B9000910540F444914093F10031962150310950
:103BA0000196F2CF41E0089709F040E08091E800EB
:103BB0008E778093E800CCCF4111CDCF0AC08091A1
:103BC0004103882351F0853041F08091E80083FD66
:103BD00004C08091E80082FFF2CF8091E8008B77EB
:103BE0008093E8003CC08038D1F58091E800877F61
:103BF0008093E800809142038093F1008091E80077
:103C00008E778093E8000E948B1229C0811127C013
:103C100080914503909146039927029704F580917E
:103C2000E800877F8093E8001091450310934203DA
:103C30000E948B12111106C08091E30087FD02C023
:103C400081E001C084E08093410342E061EC81E0C7
:103C50000E94AA1242E261EC82E00E94AA128091C4
:103C6000E80083FF1AC08091E800877F8093E80016
:103C70008091EB0080628093EB000FC082E190E0C6
:103C8000EDE7F5E057CF89E090E0E4E5F5E052CFCD
:103C900080E490E0E2E0F5E04DCFAA960FB6F8940C
:103CA000DEBF0FBECDBFDF91CF911F9108951F9250
:103CB0000F920FB60F9211242F933F934F935F9360
:103CC0006F937F938F939F93AF93BF93CF93DF9324
:103CD000EF93FF93C091E900CF708091EC00D82F53
:103CE000D17080FDD0E81092E9008091F000877FCC
:103CF0008093F00078940E94821B1092E9008091DA
:103D0000F00088608093F000CD2BCF70C093E90065
:103D1000FF91EF91DF91CF91BF91AF919F918F91E3
:103D20007F916F915F914F913F912F910F900FBEB7
:103D30000F901F901895E8EDF0E080818E7F8083D2
:103D40001092E2001092DA001092E100A0EEB0E0D2
:103D50008C9181608C9380818F77808319BCA7EDD3
:103D6000B0E08C918E7F8C9380818F7E80831092C7
:103D700015030895CF92DF92EF92FF920F931F9356
:103D8000CF93DF93C8EDD0E088818F7E8883E7ED05
:103D9000F0E080818160808384E082BF81E0809355
:103DA000150388818E7F888302EE10E0F80110826F
:103DB0001092DA0081EEC82ED12CF6011082888193
:103DC0008F77888388818068888388818F7D8883C6
:103DD00019BC1092410310924203109240031092BA
:103DE0003F0390EEE92EF12CF70180818B7F8083D9
:103DF00088818160888342E060E080E00E94AA12AE
:103E0000F60180818E7F8083F801808181608083CC
:103E1000808188608083F70180818E7F80838881A4
:103E200080618883DF91CF911F910F91FF90EF9078
:103E3000DF90CF9008951F920F920FB60F9211242A
:103E40002F933F934F935F936F937F938F939F93A2
:103E5000AF93BF93EF93FF938091E10082FF09C07E
:103E60008091E20082FF05C08091E1008B7F80930A
:103E7000E1008091DA0080FF2AC08091D80080FFA5
:103E800026C08091DA008E7F8093DA008091D9007D
:103E900080FF18C080E189BD82E189BD09B400FEC0
:103EA000FDCF81E0809341038091150381110FC004
:103EB0000E949B1E0E94BA1E8091E2008460809343
:103EC000E20005C019BC10924103109215038091C5
:103ED000E10080FF17C08091E20080FF13C0809155
:103EE000E2008E7F8093E2008091E2008061809307
:103EF000E2008091D80080628093D80019BC85E0F0
:103F0000809341038091E10084FF43C08091E200EF
:103F100084FF3FC080E189BD82E189BD09B400FE14
:103F2000FDCF8091D8008F7D8093D8008091E100F3
:103F30008F7E8093E1008091E2008F7E8093E2008B
:103F40008091E20081608093E200809142038823A7
:103F500011F084E007C08091E30087FD02C081E09A
:103F600001C083E0809341030E94AA260E9486221A
:103F700010921C0380911B03882349F08091160343
:103F800081608093160360E086950E94D40C0E94A5
:103F90000C248091E10083FF27C08091E20083FF21
:103FA00023C08091E100877F8093E10082E08093CD
:103FB0004103109242038091E1008E7F8093E100E3
:103FC0008091E2008E7F8093E2008091E200806128
:103FD0008093E20042E060E080E00E94AA128091BB
:103FE000F00088608093F000FF91EF91BF91AF9156
:103FF0009F918F917F916F915F914F913F912F9101
:104000000F900FBE0F901F9018950895EF92FF929A
:104010001F93CF93DF93EC018EE4E82E83E0F82E1C
:1040200010E08C8197014091190360911803810F72
:104030000E943C0D1F5E84E0E80EF11C1F3F89F7D3
:104040000E94FE109A818C8190FF02C08F5F01C098
:1040500081508C83DF91CF911F91FF90EF90089555
:10406000EF92FF920F931F93CF93DF938C01CEE4D7
:10407000D3E0E12CF12CF8018481F7E0EF16F10494
:104080001CF4882339F002C0811104C09E014091C4
:10409000190302C09E0140E060911803809117034C
:1040A0000E943C0D8FEFE81AF80A24969FE0E9166B
:1040B000F10409F70E94FE10F801848190E0019656
:1040C000817099278483DF91CF911F910F91FF9089
:1040D000EF900895EF92FF920F931F93CF93DF938A
:1040E000EC018C819D810196817099279D838C8341
:1040F0008EE4E82E83E0F82E10E005E5212F2695CA
:104100008C819D81820F911D8170970140911903CF
:1041100060911803809F802D11240E943C0D1F5F29
:1041200084E0E80EF11C1F3049F7DF91CF911F9119
:104130000F91FF90EF900C94FE100F931F93CF936D
:10414000DF93CEE4D3E0FE0111821082128213824B
:10415000349683E0EA38F807B9F700E010E0809180
:104160004C03082E000C990B0817190794F0809146
:104170001F01082E000C990B8017910754F09E0127
:104180004091190360911803809117030E943C0D20
:1041900004C0198218821A821B820F5F1F4F249657
:1041A0000F301105E1F60E94FE1080911E019091E2
:1041B0004C03980F90934C0320911F01280F2093DC
:1041C0001F01121614F49E301CF0819580931E017D
:1041D000DF91CF911F910F910895BF92CF92DF92FF
:1041E000EF92FF920F931F93CF93DF93FC01828195
:1041F00080FF03C0DD24DA9402C0DD24D3940EE4F2
:1042000013E0C0E0D0E02FE0B22EF801118210825E
:104210001282138294E0E92EF12CC12C80914B0381
:104220008C0D80312CF06B2D0E94EE28892F02C05E
:1042300087FD815F082E000C990BC817D90791F4F0
:10424000809119038E9DA0018F9D500D11245595CD
:1042500047955595479598016091180380911703EC
:104260000E943C0DCD0CF1E0EF1AF108B9F6219651
:104270000C5F1F4FCF30D10541F60E94FE10809198
:104280004B0391E0D91206C0811102C08EE007C035
:10429000815005C090E00196BE010E9410298093D4
:1042A0004B03DF91CF911F910F91FF90EF90DF9023
:1042B000CF90BF900895CF93DF93EC01E6E1F3E058
:1042C000438162818C810E94D10D8C818F5F8C83B0
:1042D000DF91CF910895CF93DF93EC01EC81F0E073
:1042E000E054FA4F4491E6E1F3E0628181810E945B
:1042F000D10D8C818F5F8C83DF91CF9108950F93C7
:104300001F93CF93DF93CDB7DEB767970FB6F894BF
:10431000DEBF0FBECDBF4B8B5C8B6D8B7E8B8F8BCF
:104320000E891F890115110531F05F3F31F481E0DD
:104330004F3F19F403C081E001C080E080FD32C02E
:10434000242F30E0A1E0B0E0042E01C0AA0F0A94AF
:10435000EAF7852F90E0662319F070919F0305C05E
:10436000FC01E057FC4F70817A237723A1F046E0EF
:10437000489FF001499FF00D1124E20FF31FEE0F4B
:10438000FF1FEB5BFE4F40815181FC01E057FC4F6A
:104390009081A92B06C0FC01E057FC4FA0958081BD
:1043A000A823A08386E0FE013D96DF01982F1D9291
:1043B0009A95E9F74D875E876F87198B088BDE0129
:1043C000179601900D928A95E1F7CE0107960E940B
:1043D000B32481113EC086E0FE013796DE011196BE
:1043E00001900D928A95E1F7FF81E8856A857B85CA
:1043F0006115710531F0EF3F31F481E0FF3F19F4B1
:1044000003C081E001C080E080FD23C020919E02B6
:1044100030E0C9010196877099274091CF0250E0A2
:104420008417950779F1F983EA837D836C8396E09D
:10443000929FD001939FB00D1124A156BD4FFE0154
:10444000319601900D929A95E1F780939E020E9419
:104450004C1B16E08091CF0290919E028917F9F0D3
:10446000189FC001112481569D4F0E94B3248823B8
:10447000B1F08091CF0290E00196877099278093E8
:10448000CF02E8CF0E94AA2610929E021092CF027D
:10449000E8E9F2E086E0DF011D928A95E9F7679688
:1044A0000FB6F894DEBF0FBECDBFDF91CF911F9145
:1044B0000F91089520918E0330918F0328173907AB
:1044C00071F090938F0380938E03E0914602F091F8
:1044D0004702309721F00084F185E02D099408957A
:1044E00020918C0330918D032817390771F0909338
:1044F0008D0380938C03E0914602F0914702309740
:1045000021F00680F781E02D09940895E09146029C
:10451000F0914702309721F00190F081E02D09944D
:1045200080E008959091160390FF04C09695981727
:1045300040F003C0811105C090E0961710F40C9470
:10454000230D0C940F0D882311F0FA0101C0FB011B
:1045500009949091160390FF0DC0EEE4F3E081837F
:10456000608342831382349693E0EA38F907B9F7FF
:104570000C94FE1008950F931F93CF93DF9300D0F8
:1045800000D0CDB7DEB78C0180914D0381110AC0F8
:104590009E012F5F3F4F4FEF6FEF0E943C0D8A81CE
:1045A00080934D03F8018481813051F028F08230EE
:1045B00061F440914D030AC080914D0340E007C073
:1045C00060914D0340E080E003C040E080E060E0A7
:1045D0000E94A922F801848190E0019663E070E0D6
:1045E0000E94102984830F900F900F900F90DF91FD
:1045F000CF911F910F9108955F926F927F928F924A
:104600009F92AF92BF92CF92DF92EF92FF920F9361
:104610001F93CF93DF9300D000D0CDB7DEB7182F14
:10462000762E042F622E9091160390FF6DC0E92F15
:10463000E695AE2FB0E0A05EBE4F8C9180935D02F8
:104640009E7F923061F49E012F5F3F4F812F0E9429
:104650003C0D4B8169818A810E94A92243C082302E
:1046600019F4009119033EC0863019F41091170314
:1046700039C08930D9F38931A9F5E9518E2F81707C
:10468000582EE695F0E0E554FA4FA590B4908EE4EC
:10469000C82E83E0D82EE12CF12CBB249FE0892E7C
:1046A000912CAE9CC001AF9C900DBE9C900D11242E
:1046B000B4010E94FC28812F511002C0860F01C056
:1046C000861B9601402F672D0E943C0D8FEFE81A44
:1046D000F80A84E0C80ED11C8FE0E816F10409F74F
:1046E0000E94FE1010931703709218030093190391
:1046F000662051F0609116037091170380911803A2
:10470000909119030E94A00C0F900F900F900F90A2
:10471000DF91CF911F910F91FF90EF90DF90CF909D
:10472000BF90AF909F908F907F906F905F90089513
:104730000F931F93CF93DF93C62FD42F122FFC011B
:1047400082818823C9F060931F020E94B818909359
:104750008B0380938A0380E28C0F883008F057C067
:10476000C77081E001C0880FCA95EAF7DF91CF9149
:104770001F910F910C94DF2680911F02681330C0A7
:1047800080918A0390918B030E948E18883C91053A
:1047900038F500E20D0FCD17B9F080E28C0F8830AC
:1047A00040F4C77081E001C0880FCA95EAF70E9403
:1047B000D426083028F581E09D2F977001C0880F1E
:1047C0009A95EAF70E94DF26812F0E945027083031
:1047D000F0F4D77081E001C0880FDA95EAF70AC0DB
:1047E00080E28C0F883098F4C77081E001C0880F98
:1047F000CA95EAF7DF91CF911F910F910C94D426BF
:10480000812FDF91CF911F910F910C945027DF9151
:10481000CF911F910F91089560911603669570E0F6
:104820004BE050E083E191E00E94572A892B19F474
:1048300081E080935E020E94B818909358028093A2
:1048400057020895CF9380919D0282958F7009F051
:104850005FC080919A02882309F45AC08091CF02E8
:10486000B0919E0270919802A091990240919B0292
:1048700050919C0291E07F3F09F090E0692FC6E0E3
:104880008B1709F445C04115510521F0AF3F21F0C8
:1048900020E003C021E001C0262F90E020FD35C0BC
:1048A000C89FF001C99FF00D1124E156FD4F2181F1
:1048B0002A132BC02081271328C02281211125C053
:1048C000238134812417350710F421503109241B2A
:1048D000350B283C3105C8F420919D022F702061D2
:1048E00020939D0226E0289FF001299FF00D1124BE
:1048F000EC55FD4F80818F708061808388E992E064
:104900000E947F03CF910C944C1B01968770B8CF07
:10491000CF9108950E94731A292F2F70E92FE295E5
:10492000EF704E2F50E0FA013297EE30F105B8F4F7
:10493000E257FF4F0C942429803F99F018F4883EE9
:1049400070F40FC0843F59F40CC0883E50F0813F92
:1049500031F407C0822F869586958695089580E06C
:10496000089581E00895AF92BF92CF92DF92EF92C7
:10497000FF920F931F93CF93DF93CDB7DEB761976D
:104980000FB6F894DEBF0FBECDBF8C0185E0F801F5
:10499000DE011D9601900D928A95E1F7D8013C91B8
:1049A00011962C9111971296EC905091980260916B
:1049B000990280919B0290919C02009731F06F3F89
:1049C00031F441E05F3F19F403C041E001C040E031
:1049D000B42FB170BB2E40FD43C1F801C380D48019
:1049E000A0909A02AA2009F4E2C040919D02C81644
:1049F000D90628F0D601A81BB90BCD0104C08095BB
:104A000090958C0D9D1DFF24F394883C910548F0F2
:104A1000F12C407F09F090C088E992E00E947F036A
:104A200017C1842F807F09F052C0621312C0531344
:104A300010C0FE2CE1100DC04F70406140939D02EC
:104A400088E992E00E947F0380919D02F8018583AE
:104A500054C1CD2831F02F3F31F481E03F3F19F4AC
:104A600003C081E001C080E080FD03C081E08E25AD
:104A700002C080E090E0F82FF170FF2E80FF1CC094
:104A80008091CF0240919E0256E0841709F412C132
:104A900090E0589FF001599FF00D1124E156FD4F11
:104AA0006181261306C06081361303C06281E6125D
:104AB00003C001968770E9CFFE2CEE2009F41DC1DA
:104AC00080919D02816080939D02F12C16C162133A
:104AD00008C0531306C0E11004C080919D02F80184
:104AE00099C03D872E878D859E850E948A248823C4
:104AF00069F1EE2059F120919D02822F82958F70ED
:104B000090E0029774F080919802909199029887B2
:104B10008F831986DB86CA862C87CE0107960E9472
:104B20007F0386E0F801A8E9B2E001900D928A9532
:104B3000E1F70E9422240DC0621771F03D872E8795
:104B40008D859E850E948A2481111AC0C8010E9409
:104B50007F03FF24F394D1C05313F0CFE110EECFC5
:104B600080919D02F8018583C8010E947F0386E041
:104B7000E8E9F2E0DF011D928A95E9F7FA2CBDC061
:104B8000EE2021F320919D02822F82958F7090E07C
:104B900002973CF280919802909199029A838983BE
:104BA0001B82DD82CC822E83CE010196B8CFC8163F
:104BB000D90638F0C81AD90AB8ECCB16D10450F08F
:104BC00007C0809590958C0D9D1D883C910510F037
:104BD000F12C3EC0FE2CEE2009F4B8CF621327C0A2
:104BE000531325C020919D0220FD18C0822F82956D
:104BF0008F70482F50E04115510581F0F801258351
:104C00004F30510541F08F5F982F9295907F822F02
:104C10008F70892B8583C8010E947F0386E0F8018D
:104C2000A8E9B2E001900D928A95E1F766C03D8750
:104C30002E878D859E850E948A24811172CF809156
:104C40009D02816080939D02C8010E947F0355C030
:104C5000E8E9F2E086E0DF011D928A95E9F74DC0B0
:104C6000EE2009F473CF3D872E878D859E850E94A7
:104C70008A24F82E882309F469CF86E0F801A8E990
:104C8000B2E001900D928A95E1F78091980290919F
:104C900099020E94731A92959F70963041F4809108
:104CA0009F0391E0892780939F0390939E030E9426
:104CB000222423C03D872E878D859E850E94731AEE
:104CC000292F22952F70223028F49F7039F08111FE
:104CD00005C00BC0243028F49F7049F4805E8830F2
:104CE00020F0C8010E947F03BF2CFB2C06C0D80116
:104CF00015969C91907F91F7F8CF8F2D61960FB606
:104D0000F894DEBF0FBECDBFDF91CF911F910F9101
:104D1000FF90EF90DF90CF90BF90AF9008951092EA
:104D20000903109208030E94EB19EFE5F2E086E018
:104D3000DF011D928A95E9F7109265021092140323
:104D40000E94C41880E090E00E94702280E090E011
:104D50000C945A2210920A0380911201882331F098
:104D600080913F0287FF02C08EE101C086E0EAE742
:104D7000F2E0DF011D928A95E9F70C948F268823D3
:104D800041F08095909109038923809309030C9445
:104D9000EB190895882339F090910903892B8093AA
:104DA00009030C94EB190895882341F080959091A4
:104DB0000A03892380930A030C94EB19089588232E
:104DC00039F090910A03892B80930A030C94EB1914
:104DD0000895882309F463C0823869F40E9486220A
:104DE00081FF5DC069E388E792E00E942B190E9471
:104DF000EB1969E30EC0833891F40E94862280FF8C
:104E00004EC063E588E792E00E942B190E94EB19DF
:104E100063E588E792E00E9403190C94EB1984384B
:104E200069F40E94862282FF3AC067E488E792E034
:104E30000E942B190E94EB1967E4EBCF9CEF980FAF
:104E4000913A10F4682FE5CF90E2980F983088F4EB
:104E5000877021E030E0A90102C0440F551F8A95F8
:104E6000E2F7CA01809590910A03892380930A038F
:104E7000D4CF9BE5980F933020F480E090E00C9421
:104E8000702298E5980F973120F480E090E00C9420
:104E90005A22803F20F00E9436170C94C4180895BF
:104EA000CF93C82F0E946327C93349F42FEF87EEB1
:104EB00093E0215080409040E1F700C000008C2F2B
:104EC000CF910C94E926882309F489C08238B1F483
:104ED0000E94862281FD83C069E388E792E00E94F8
:104EE0002B190E94EB192FEF41EE54E02150404066
:104EF0005040E1F700C0000069E317C08338D9F4DF
:104F00000E94862280FD6BC063E588E792E00E94E4
:104F10002B190E94EB198FEF91EE24E08150904005
:104F20002040E1F700C0000063E588E792E00E94BE
:104F300003190C94EB198438B1F40E94862282FD87
:104F40004EC067E488E792E00E942B190E94EB199B
:104F50004FEF51EE84E0415050408040E1F700C0F7
:104F6000000067E4E2CF9CEF980F913A30F4682F8D
:104F700088E792E00E942B19DCCF90E2980F9830DE
:104F800080F4877021E030E0A90102C0440F551F72
:104F90008A95E2F7CA0190910A03892B80930A034C
:104FA000C8CFEBE5E80FE33038F4F0E0E351FE4F13
:104FB000808190E00C947022E8E5E80FE73148F436
:104FC000F0E0EE0FFF1FE051FE4F808191810C94C5
:104FD0005A22803F20F00E9400180C94C4180895B3
:104FE0001092B9008CE08093B8000895EF92FF9280
:104FF0000F931F93CF93DF93182FEB011092BC00F8
:1050000084EA8093BC000E94B8187C018091BC00A7
:1050100087FD0EC0CF3F8FEFD807C1F30E94B818AD
:105020008E199F098C179D0788F38EEF9FEF2EC076
:105030008091B900887F883041F08091B900887FE5
:10504000803119F08FEF9FEF21C01093BB0084E8EF
:105050008093BC000E94B8188C018091BC0087FD31
:105060000CC0CF3F8FEFD807C1F30E94B818801B48
:10507000910B8C179D0788F3D8CF8091B900887F5A
:10508000883111F08034F1F680E090E0DF91CF912B
:105090001F910F91FF90EF9008950F931F93CF935F
:1050A000DF93EB018093BB0084E88093BC000E94F7
:1050B000B8188C018091BC0087FD0EC0CF3F8FEFE8
:1050C000D807C1F30E94B818801B910B8C179D075D
:1050D00088F38EEF9FEF0CC02091B900287F81E00C
:1050E00090E0283211F480E090E09195819591094B
:1050F000DF91CF911F910F9108950F931F93CF933D
:10510000DF93EC0184E88093BC000E94B8188C0106
:105110008091BC0087FD0EC0CF3F8FEFD807C1F351
:105120000E94B818801B910B8C179D0788F38EEF97
:105130009FEF03C08091BB0090E0DF91CF911F9162
:105140000F91089584E98093BC000895F999FECFEA
:1051500092BD81BDF89A992780B50895A6E1B0E087
:1051600044E050E00C94E028A8E1B0E042E050E0D8
:105170000C94E028262FF999FECF92BD81BDF89AB4
:10518000019700B4021639F01FBA20BD0FB6F8948B
:10519000FA9AF99A0FBE08950396272F0E94BB280A
:1051A0000E94BA28252F0E94BB28242F0C94BB28CC
:1051B0000196272F0E94BB280C94BA28DC01CB0152
:1051C000FC01F999FECF06C0F2BDE1BDF89A319617
:1051D00000B40D9241505040B8F7089587FB082E57
:1051E000062687FD819567FD61950E942A290EF4A8
:1051F000919507FC81950895AA1BBB1B51E107C03F
:10520000AA1FBB1FA617B70710F0A61BB70B881F56
:10521000991F5A95A9F780959095BC01CD010895E5
:1052200097FB072E16F4009407D077FD09D00E9453
:10523000FC2807FC05D03EF4909581959F4F08957A
:10524000709561957F4F0895EE0FFF1F0590F491C3
:10525000E02D0994991B79E004C0991F961708F076
:10526000961B881F7A95C9F7809508950F931F9311
:10527000CF93DF938230910510F482E090E0E091CB
:10528000A203F091A30320E030E0A0E0B0E030976B
:1052900019F1408151810281138148175907C8F0E3
:1052A0008417950769F4109731F012960C931297B2
:1052B00013961C9327C00093A2031093A30322C04C
:1052C0002115310519F04217530718F49A01BD0151
:1052D000EF01DF01F801DBCF21153105F9F0281BC3
:1052E000390B2430310580F48A819B816115710569
:1052F00021F0FB019383828304C09093A3038093E6
:10530000A203FE01329644C0FE01E20FF31F819317
:10531000919322503109398328833AC02091A00308
:105320003091A103232B41F420910201309103011C
:105330003093A1032093A00320910001309101013B
:105340002115310541F42DB73EB74091040150912C
:105350000501241B350BE091A003F091A103E21796
:10536000F307A0F42E1B3F0B2817390778F0AC0188
:105370004E5F5F4F2417350748F04E0F5F1F509365
:10538000A1034093A0038193919302C0E0E0F0E079
:10539000CF01DF91CF911F910F910895CF93DF93AC
:1053A000009709F481C0FC01329713821282A09108
:1053B000A203B091A303109781F420813181820F61
:1053C000931F2091A0033091A1032817390751F5AD
:1053D000F093A103E093A00367C0ED0120E030E06B
:1053E000CE17DF0740F44A815B819E0141155105CC
:1053F000F1F0EA01F5CFD383C28340815181840F5C
:10540000951FC817D90759F488819981840F951F72
:105410000296918380838A819B8193838283211565
:10542000310529F4F093A303E093A2033DC0E90101
:10543000FB83EA8349915991C40FD51FEC17FD07EF
:1054400061F480819181840F951F0296E90199830F
:105450008883828193819B838A83E0E0F0E01296C7
:105460008D919C911397009719F0FD01DC01F7CF06
:105470008D919C9111979D012E5F3F4F820F931F3D
:105480002091A0033091A1032817390769F43097C0
:1054900029F41092A3031092A20302C01382128275
:1054A000B093A103A093A003DF91CF910895FC01D5
:1054B0004150504030F001900616D1F73197CF019E
:0C54C0000895882799270895F894FFCFDD
:1054CC000000A403200020007616EF16C416BE16AA
:1054DC00AC160101191A1B1C1D1E1F2021220102D2
:1054EC000001020202020606060909090909090F50
:1054FC000F0F0F0F0F15151518191919191919194F
:10550C001919192324000D010D020D030D040D05AD
:10551C000D000C010C020C030C040C050C000B010F
:10552C000B020B030B040B050B000A010A020A0306
:10553C000A040A050A0009010902090309040905FC
:10554C0009000801080208030804080508000701FF
:10555C0007020703070407050700060106020603F6
:10556C0006040605060005010502050305040505EC
:10557C0005000401040204030404040504000301EF
:10558C0003020303030403050300020102020203E6
:10559C0002040205020001010102010301040105DC
:1055AC000100000100020003000400050081828359
:1055BC00E200E900EA00B500B600B700CD008301B7
:1055CC00CC008A01920194012102230224022502BB
:0E55DC00260227022A02B300B4006F007000FE
:00000001FF
